:020000040800F2
:1000000000500020BD2B0008ED240008F324000858
:10001000F9240008FF24000805250008000000005E
:100020000000000000000000000000000B25000898
:100030001725000800000000232500082F250008D0
:10004000052C0008052C0008052C0008052C0008CC
:10005000052C0008052C0008052C0008052C0008BC
:10006000052C0008052C0008052C0008052C0008AC
:10007000052C0008052C0008052C0008052C00089C
:10008000052C0008052C0008052C0008052C00088C
:10009000052C0008052C0008052C0008052C00087C
:1000A000052C0008052C0008052C0008052C00086C
:1000B000052C0008052C0008052C0008052C00085C
:1000C000052C0008052C0008052C0008052C00084C
:1000D000052C00083D250008052C0008052C00080B
:1000E000052C0008052C0008052C00080000000065
:1000F0000000000000000000000000000000000000
:0C01000000000000000000005FF808F1A3
:1001100010B5054C237833B9044B13B10448AFF341
:1001200000800123237010BDE801002000000000C2
:10013000E898000808B5034B1BB103490348AFF327
:10014000008008BD00000000EC010020E8980008D5
:10015000034613F8012B002AFBD1181A0138704707
:1001600010F8012B11F8013B012A28BF9A42F7D061
:10017000D01A704781F0004102E000BF83F00043D5
:1001800030B54FEA41044FEA430594EA050F08BF32
:1001900090EA020F1FBF54EA000C55EA020C7FEAF6
:1001A000645C7FEA655C00F0E2804FEA5454D4EB73
:1001B0005555B8BF6D420CDD2C4480EA020281EA3D
:1001C000030382EA000083EA010180EA020281EA75
:1001D0000303362D88BF30BD11F0004F4FEA0131C7
:1001E0004FF4801C4CEA113102D0404261EB4101D6
:1001F00013F0004F4FEA03334CEA133302D052425C
:1002000063EB430394EA050F00F0A780A4F1010417
:10021000D5F1200E0DDB02FA0EFC22FA05F2801851
:1002200041F1000103FA0EF2801843FA05F3594137
:100230000EE0A5F120050EF1200E012A03FA0EFCB6
:1002400028BF4CF0020C43FA05F3C01851EBE371E0
:1002500001F0004507D54FF0000EDCF1000C7EEBFD
:1002600000006EEB0101B1F5801F1BD3B1F5001F3B
:100270000CD349085FEA30004FEA3C0C04F101045A
:100280004FEA445212F5800F80F09A80BCF1004F83
:1002900008BF5FEA500C50F1000041EB045141EA05
:1002A000050130BD5FEA4C0C404141EB0101013CCE
:1002B00028BFB1F5801FE9D291F0000F04BF0146BD
:1002C0000020B1FA81F308BF2033A3F10B03B3F18F
:1002D00020020CDA0C3208DD02F1140CC2F10C021F
:1002E00001FA0CF021FA02F10CE002F11402D8BF7D
:1002F000C2F1200C01FA02F120FA0CFCDCBF41EA49
:100300000C019040E41AA2BF01EB0451294330BD17
:100310006FEA04041F3C1CDA0C340EDC04F11404F4
:10032000C4F1200220FA04F001FA02F340EA0300CB
:1003300021FA04F345EA030130BDC4F10C04C4F111
:10034000200220FA02F001FA04F340EA03002946F1
:1003500030BD21FA04F0294630BD94F0000F83F43B
:10036000801306BF81F480110134013D4EE77FEA1E
:10037000645C18BF7FEA655C29D094EA050F08BF6A
:1003800090EA020F05D054EA000C04BF194610464B
:1003900030BD91EA030F1EBF0021002030BD5FEA8F
:1003A000545C05D14000494128BF41F0004130BDB7
:1003B00014F580043CBF01F5801130BD01F000450B
:1003C00045F0FE4141F470014FF0000030BD7FEA7E
:1003D000645C1ABF194610467FEA655C1CBF0B4679
:1003E000024650EA013406BF52EA033591EA030F90
:1003F00041F4002130BD00BF90F0000F04BF002188
:10040000704730B54FF4806404F132044FF00005BA
:100410004FF0000150E700BF90F0000F04BF002133
:10042000704730B54FF4806404F1320410F0004599
:1004300048BF40424FF000013EE700BF42004FEA94
:10044000E2014FEA31014FEA02701FBF12F07F4311
:1004500093F07F4F81F06051704732F07F4208BFC8
:10046000704793F07F4F04BF41F40021704730B5CF
:100470004FF4607401F0004521F000411CE700BF1B
:1004800050EA010208BF704730B54FF000050AE09E
:1004900050EA010208BF704730B511F0004502D59F
:1004A000404261EB41014FF4806404F132045FEAA1
:1004B000915C3FF4D8AE4FF003025FEADC0C18BF4A
:1004C00003325FEADC0C18BF033202EBDC02C2F13C
:1004D000200300FA03FC20FA02F001FA03FE40EACE
:1004E0000E0021FA02F11444BDE600BF70B54FF0D2
:1004F000FF0C4CF4E06C1CEA11541DBF1CEA1355B0
:1005000094EA0C0F95EA0C0F00F0DEF82C4481EA17
:10051000030621EA4C5123EA4C5350EA013518BF37
:1005200052EA033541F4801143F4801338D0A0FB24
:1005300002CE4FF00005E1FB02E506F00042E0FBD1
:1005400003E54FF00006E1FB03569CF0000F18BFD7
:100550004EF0010EA4F1FF04B6F5007F64F540747F
:1005600004D25FEA4E0E6D4146EB060642EAC62112
:1005700041EA55514FEAC52040EA5E504FEACE2E7F
:10058000B4F1FD0C88BFBCF5E06F1ED8BEF1004F82
:1005900008BF5FEA500E50F1000041EB045170BDFE
:1005A00006F0004646EA010140EA020081EA030142
:1005B000B4EB5C04C2BFD4EB0C0541EA045170BD3E
:1005C00041F480114FF0000E013C00F3AB8014F1B8
:1005D000360FDEBF002001F0004170BDC4F1000401
:1005E000203C35DA0C341BDC04F11404C4F1200582
:1005F00000FA05F320FA04F001FA05F240EA0200DD
:1006000001F0004221F0004110EBD37021FA04F612
:1006100042EB06015EEA430E08BF20EAD37070BDCC
:10062000C4F10C04C4F1200500FA04F320FA05F02B
:1006300001FA04F240EA020001F0004110EBD3702D
:1006400041F100015EEA430E08BF20EAD37070BD9D
:10065000C4F1200500FA05F24EEA020E20FA04F376
:1006600001FA05F243EA020321FA04F001F0004125
:1006700021FA04F220EA020000EBD3705EEA430E96
:1006800008BF20EAD37070BD94F0000F0FD101F0C5
:100690000046400041EB010111F4801F08BF013CFE
:1006A000F7D041EA060195F0000F18BF704703F03C
:1006B0000046520043EB030313F4801F08BF013DC3
:1006C000F7D043EA0603704794EA0C0F0CEA13557F
:1006D00018BF95EA0C0F0CD050EA410618BF52EA39
:1006E0004306D1D181EA030101F000414FF000003F
:1006F00070BD50EA410606BF1046194652EA43064D
:1007000019D094EA0C0F02D150EA013613D195EAC0
:100710000C0F05D152EA03361CBF104619460AD108
:1007200081EA030101F0004141F0FE4141F4700112
:100730004FF0000070BD41F0FE4141F4780170BD02
:1007400070B54FF0FF0C4CF4E06C1CEA11541DBF67
:100750001CEA135594EA0C0F95EA0C0F00F0A7F869
:10076000A4EB050481EA030E52EA03354FEA013196
:1007700000F088804FEA03334FF0805545EA1313A9
:1007800043EA12634FEA022245EA111545EA106571
:100790004FEA00260EF000419D4208BF964244F108
:1007A000FD0404F5407402D25B084FEA3202B61A27
:1007B00065EB03055B084FEA32024FF480104FF4FB
:1007C000002CB6EB020E75EB030E22BFB61A75466F
:1007D00040EA0C005B084FEA3202B6EB020E75EB02
:1007E000030E22BFB61A754640EA5C005B084FEA6A
:1007F0003202B6EB020E75EB030E22BFB61A754637
:1008000040EA9C005B084FEA3202B6EB020E75EB41
:10081000030E22BFB61A754640EADC0055EA060E02
:1008200018D04FEA051545EA16754FEA06164FEA45
:10083000C30343EA52734FEAC2025FEA1C1CC0D1F1
:1008400011F4801F0BD141EA00014FF000004FF07E
:10085000004CB6E711F4801F04BF01430020B4F13F
:10086000FD0C88BFBCF5E06F3FF6AFAEB5EB030CF7
:1008700004BFB6EB020C5FEA500C50F1000041EBF4
:10088000045170BD0EF0004E4EEA113114EB5C04C1
:10089000C2BFD4EB0C0541EA045170BD41F4801194
:1008A0004FF0000E013C90E645EA060E8DE60CEA9C
:1008B000135594EA0C0F08BF95EA0C0F3FF43BAFB9
:1008C00094EA0C0F0AD150EA01347FF434AF95EA70
:1008D0000C0F7FF425AF104619462CE795EA0C0F54
:1008E00006D152EA03353FF4FDAE1046194622E721
:1008F00050EA410618BF52EA43067FF4C5AE50EAFB
:1009000041047FF40DAF52EA43057FF4EBAE12E7EA
:100910004FF0FF3C06E000BF4FF0010C02E000BFCB
:100920004FF0010C4DF804CD4FEA410C7FEA6C5CAE
:100930004FEA430C18BF7FEA6C5C1BD001B050EA51
:10094000410C0CBF52EA430C91EA030F02BF90EA3C
:10095000020F0020704710F1000F91EA030F58BFFB
:10096000994208BF90422CBFD8176FEAE37040F05D
:10097000010070474FEA410C7FEA6C5C02D150EAFB
:10098000013C07D14FEA430C7FEA6C5CD6D152EAB6
:10099000033CD3D05DF8040B704700BF844610467B
:1009A00062468C461946634600E000BF01B5FFF77A
:1009B000B7FF002848BF10F1000F01BD4DF808ED4A
:1009C000FFF7F4FF0CBF012000205DF808FB00BF1B
:1009D0004DF808EDFFF7EAFF34BF012000205DF875
:1009E00008FB00BF4DF808EDFFF7E0FF94BF0120C2
:1009F00000205DF808FB00BF4DF808EDFFF7CEFFC3
:100A000094BF012000205DF808FB00BF4DF808ED01
:100A1000FFF7C4FF34BF012000205DF808FB00BFD2
:100A20004FEA410C7FEA6C5C02D150EA013C0AD1EA
:100A30004FEA430C7FEA6C5C02D152EA033C02D1DC
:100A40004FF0000070474FF0010070474FEA41023D
:100A500012F5001215D211D56FF47873B3EB625210
:100A600012D94FEAC12343F0004343EA505311F037
:100A7000004F23FA02F018BF404270474FF00000C9
:100A8000704750EA013005D111F0004008BF6FF007
:100A9000004070474FF00000704700BF4A0011D27D
:100AA00012F5001211D20DD56FF47873B3EB6252C8
:100AB0000ED44FEAC12343F0004343EA505323FAD4
:100AC00002F070474FF00000704750EA013002D149
:100AD0004FF0FF3070474FF0000070474FEA41027F
:100AE000B2F1E04324BFB3F5001CDCF1FE5C0DD98C
:100AF00001F0004C4FEAC0024CEA5070B2F1004FD6
:100B000040EB830008BF20F00100704711F0804FD8
:100B100021D113F13872BCBF01F00040704741F49D
:100B200080114FEA5252C2F11802C2F1200C10FAA1
:100B30000CF320FA02F018BF40F001004FEAC12385
:100B40004FEAD32303FA0CFC40EA0C0023FA02F329
:100B50004FEA4303CCE77FEA625307D150EA0133FF
:100B60001EBF4FF0FE4040F44000704701F00040CF
:100B700040F0FE4040F40000704700BF80F00040AD
:100B800002E000BF81F0004142001FBF5FEA410365
:100B900092EA030F7FEA226C7FEA236C6AD04FEA65
:100BA0001262D2EB1363C1BFD218414048404140AA
:100BB000B8BF5B42192B88BF704710F0004F40F45C
:100BC000000020F07F4018BF404211F0004F41F478
:100BD000000121F07F4118BF494292EA030F3FD044
:100BE000A2F1010241FA03FC10EB0C00C3F1200357
:100BF00001FA03F100F0004302D5494260EB4000E6
:100C0000B0F5000F13D3B0F1807F06D340084FEA50
:100C1000310102F10102FE2A51D2B1F1004F40EB45
:100C2000C25008BF20F0010040EA030070474900AD
:100C300040EB0000013A28BFB0F5000FEDD2B0FA4A
:100C400080FCACF1080CB2EB0C0200FA0CF0AABF6D
:100C500000EBC25052421843BCBFD040184370470B
:100C600092F0000F81F4000106BF80F40000013211
:100C7000013BB5E74FEA41037FEA226C18BF7FEAE8
:100C8000236C21D092EA030F04D092F0000F08BF2A
:100C90000846704790EA010F1CBF0020704712F011
:100CA0007F4F04D1400028BF40F00040704712F150
:100CB00000723CBF00F50000704700F0004343F0B5
:100CC000FE4040F4000070477FEA226216BF0846EB
:100CD0007FEA23630146420206BF5FEA412390EAAE
:100CE000010F40F4800070474FF0000304E000BFA4
:100CF00010F0004348BF40425FEA000C08BF704755
:100D000043F0964301464FF000001CE050EA010218
:100D100008BF70474FF000030AE000BF50EA01022D
:100D200008BF704711F0004302D5404261EB41011A
:100D30005FEA010C02BF84460146002043F0B6433F
:100D400008BFA3F18053A3F50003BCFA8CF2083A64
:100D5000A3EBC25310DB01FA02FC634400FA02FC6D
:100D6000C2F12002BCF1004F20FA02F243EB020074
:100D700008BF20F00100704702F1200201FA02FCD6
:100D8000C2F1200250EA4C0021FA02F243EB0200C9
:100D900008BF20EADC7070474FF0FF0C1CEAD0520D
:100DA0001EBF1CEAD15392EA0C0F93EA0C0F6FD0CE
:100DB0001A4480EA010C400218BF5FEA41211ED0AC
:100DC0004FF0006343EA501043EA5111A0FB013198
:100DD0000CF00040B1F5000F3EBF490041EAD3716D
:100DE0005B0040EA010062F17F02FD2A1DD8B3F1E9
:100DF000004F40EBC25008BF20F00100704790F058
:100E0000000F0CF0004C08BF49024CEA502040EAA9
:100E100051207F3AC2BFD2F1FF0340EAC25070476F
:100E200040F400004FF00003013A5DDC12F1190FAD
:100E3000DCBF00F000407047C2F10002410021FA1F
:100E400002F1C2F1200200FA02FC5FEA310040F137
:100E5000000053EA4C0308BF20EADC70704792F0B0
:100E6000000F00F0004C02BF400010F4000F013AE8
:100E7000F9D040EA0C0093F0000F01F0004C02BFE3
:100E8000490011F4000F013BF9D041EA0C018FE752
:100E90000CEAD15392EA0C0F18BF93EA0C0F0AD058
:100EA00030F0004C18BF31F0004CD8D180EA01007E
:100EB00000F00040704790F0000F17BF90F0004F17
:100EC000084691F0000F91F0004F14D092EA0C0FF9
:100ED00001D142020FD193EA0C0F03D14B0218BF8C
:100EE000084608D180EA010000F0004040F0FE40D2
:100EF00040F40000704740F0FE4040F4400070476E
:100F00004FF0FF0C1CEAD0521EBF1CEAD15392EAEC
:100F10000C0F93EA0C0F69D0A2EB030280EA010CDC
:100F200049024FEA402037D04FF0805343EA111175
:100F300043EA10130CF000408B4238BF5B0042F1D3
:100F40007D024FF4000C8B4224BF5B1A40EA0C0078
:100F5000B3EB510F24BFA3EB510340EA5C00B3EBAA
:100F6000910F24BFA3EB910340EA9C00B3EBD10F98
:100F700024BFA3EBD10340EADC001B0118BF5FEAEA
:100F80001C1CE0D1FD2A3FF650AF8B4240EBC25013
:100F900008BF20F0010070470CF0004C4CEA5020D4
:100FA0007F32C2BFD2F1FF0340EAC250704740F423
:100FB00000004FF00003013A37E792F0000F00F015
:100FC000004C02BF400010F4000F013AF9D040EA93
:100FD0000C0093F0000F01F0004C02BF490011F427
:100FE000000F013BF9D041EA0C0195E70CEAD1531F
:100FF00092EA0C0F08D142027FF47DAF93EA0C0F06
:101000007FF470AF084676E793EA0C0F04D14B02E9
:101010003FF44CAF08466EE730F0004C18BF31F09B
:10102000004CCAD130F000427FF45CAF31F0004395
:101030007FF43CAF5FE700BF4FF0FF3C06E000BF2E
:101040004FF0010C02E000BF4FF0010C4DF804CD51
:101050004FEA40024FEA41037FEA226C18BF7FEA61
:10106000236C11D001B052EA530C18BF90EA010F63
:1010700058BFB2EB030088BFC81738BF6FEAE170F2
:1010800018BF40F0010070477FEA226C02D15FEA8E
:10109000402C05D17FEA236CE4D15FEA412CE1D0FA
:1010A0005DF8040B704700BF844608466146FFE7C1
:1010B0000FB5FFF7C9FF002848BF10F1000F0FBDA3
:1010C0004DF808EDFFF7F4FF0CBF012000205DF89C
:1010D00008FB00BF4DF808EDFFF7EAFF34BF012021
:1010E00000205DF808FB00BF4DF808EDFFF7E0FFBA
:1010F00094BF012000205DF808FB00BF4DF808ED0B
:10110000FFF7D2FF94BF012000205DF808FB00BF6D
:101110004DF808EDFFF7C8FF34BF012000205DF84F
:1011200008FB00BF4FEA40024FEA41037FEA226C0E
:1011300002D15FEA402C08D17FEA236C02D15FEA3A
:10114000412C02D14FF0000070474FF00100704772
:1011500038B505460C460022002328462146FFF7F5
:1011600037FC28B928462146BDE8384000F00AB8C7
:10117000284604F1004100F005F8404261EB4101CE
:1011800038BD00BFD0B500220B4B06460F46FFF717
:10119000ADF9FFF783FC0446FFF72EF90022074B59
:1011A000FFF7A4F902460B4630463946FEF7E6FF44
:1011B000FFF774FC2146D0BD0000F03D0000F04177
:1011C00080B582B000AF7860786801F07FFD00BF25
:1011D0000837BD4680BD80B588B002AFF8607A6040
:1011E0001A460B46FB721346BB72FF23FB75FB7A54
:1011F00003F07F03DBB2FB72FB681868FB689B8817
:101200000022194602F0CAF8FB68986807F10B0142
:101210006423012202F06EFD0CE0FB68986807F180
:1012200017016423009301237A6802F0A6FE7B680D
:1012300001337B60BB7A5A1EBA72002BEDD1FB687A
:101240001868FB689B880122194602F0A7F800BFC6
:101250001837BD4680BD80B584B000AF78600B46BE
:10126000FB700023FB7307F10F02F9780123786804
:10127000FFF7B1FFFB7B18461037BD4680BD80B538
:1012800084B000AF78600B46FB700023BB8107F190
:101290000C02F97802237868FFF79DFF3B7BFB8106
:1012A000FB891B02FB817B7B9AB2FB891343FB8189
:1012B000FB8918461037BD4680BD80B582B000AFAF
:1012C00078600B46FB701346BB707B6818687B68C0
:1012D0009B880022194602F061F8FB7863F07F03D7
:1012E000DBB2FB707B689868F91C6423012202F072
:1012F00001FD7B689868B91C6423012202F0FAFCA6
:101300007B6818687B689B880122194602F046F8C2
:1013100000BF0837BD4680BD80B582B000AF7860A1
:1013200007217868FFF797FF034618460837BD4640
:1013300080BD80B584B000AF786000217868FFF789
:101340008AFF0346FB73FB7B23F02C03FB73FB7BC1
:1013500043F00203FB73FB7B1A4600217868FFF71A
:10136000ACFF00BF1037BD4680BD80B584B000AF74
:1013700078600B46FB7000217868FFF76CFF03462E
:10138000FB73FB78002B04D0FB7B63F07F03FB73C4
:1013900003E0FB7B03F07F03FB73FB7B1A4600211A
:1013A0007868FFF78AFF00BF1037BD4680BD80B563
:1013B00084B000AF78600B46FB7000217868FFF7BF
:1013C0004AFF0346FB73FB78002B04D0FB7B43F002
:1013D0004003FB7303E0FB7B23F04003FB73FB7BC9
:1013E0001A4600217868FFF768FF00BF1037BD4636
:1013F00080BD80B584B000AF78600B46FB700021E3
:101400007868FFF728FF0346FB73FB78032B04D1B2
:10141000FB7B43F01003FB7303E0FB7B23F0100323
:10142000FB73FB7B1A4600217868FFF746FF00BF7D
:101430001037BD4680BD80B584B000AF78600B46E4
:10144000FB7000217868FFF706FF0346FB73FB780B
:10145000322B04D1FB7B43F00103FB7303E0FB7BE6
:1014600023F00103FB73FB7B1A4600217868FFF72A
:1014700024FF00BF1037BD4680BD80B584B000AFEB
:1014800078607868FFF755FF01217868FFF76DFFF6
:101490000A20FFF795FE00217868FFF7DCFE03467F
:1014A000FB73FB7B43F02003FB73FB7B1A4600219D
:1014B0007868FFF702FF4120FFF782FE012178687C
:1014C000FFF7DDFE0346BB81BB895B08BB81BB899F
:1014D00018461037BD4680BD80B584B000AFF860B7
:1014E000B9607A607B80FB681B7B012B02D10120F5
:1014F000FFF766FEFB6801221A73FB68BA689A6000
:10150000FB687A681A60FB687A889A80FB681868BA
:10151000FB689B880122194601F040FF6420FFF719
:101520004FFE3B7E1946F868FFF763FF0021F8681D
:10153000FFF71BFF0021F868FFF739FFF868FFF796
:10154000F8FE3B7F1946F868FFF775FF00BF1037BC
:10155000BD4680BD00000000B0B58CB000AF786023
:1015600039607B681B7B012B02D10120FFF728FE2D
:101570007B6801221A73002387F82F307868FFF701
:101580007CFF03461846FFF7AFFB0346BB624FF0F4
:101590008E41B86AFFF7B4FC0346BB629449B86A4F
:1015A000FFF7FAFB0346BB62924B7B62924B3B62B6
:1015B000924BFB61924BBB61B96AF869FFF7ECFB98
:1015C00003461946386AFFF7DFFA03467B617869FC
:1015D00008F000F90346796A1846FFF7D5FA034682
:1015E000B9691846FFF78CFC03467B614FF0000198
:1015F0007869FFF783FD0346002B21D04FF07E531F
:10160000FB60804BBB607969F868FFF7C5FB034658
:101610001946B868FFF7B8FA03467B613B687A69F8
:101620001A607868FFF778FE0346002B02D1012389
:1016300087F82F307B6800221A7397F82F30BFE0AD
:101640007149B86AFFF75CFC0346BB626E49B86A31
:10165000FFF7A2FB0346BB62BB6A3B616B4B7B613E
:101660007869FEF7EBFE04460D463869FEF7E6FEA4
:1016700055A3D3E90023FEF739FF02460B46204667
:101680002946FEF77DFD02460B4610461946FFF738
:1016900025FA03467B61B96A3869FFF77DFB03468B
:1016A0003B617869FEF7CAFE04460D463869FEF7CD
:1016B000C5FE47A3D3E90023FEF718FF02460B46F9
:1016C00020462946FEF75CFD02460B4610461946A9
:1016D000FFF704FA03467B61B96A3869FFF75CFBE0
:1016E00003463B617869FEF7A9FE04460D4638695A
:1016F000FEF7A4FE38A3D3E90023FEF7F7FE024667
:101700000B4620462946FEF739FD02460B46104699
:101710001946FFF7E3F903467B61B96A3869FFF7B9
:101720003BFB03463B617869FEF788FE04460D46A5
:101730003869FEF783FE2AA3D3E90023FEF7D6FE1D
:1017400002460B4620462946FEF718FD02460B4688
:1017500010461946FFF7C2F903467B61B96A38693A
:10176000FFF71AFB03463B617869FEF767FE044604
:101770000D463869FEF762FE1BA3D3E90023FEF78E
:10178000B5FE02460B4620462946FEF7F9FC024606
:101790000B4610461946FFF7A1F903467B613B68EB
:1017A0007A691A607868FFF7B7FD0346002B02D10B
:1017B000012387F82F307B6800221A7397F82F30A7
:1017C00018463037BD46B0BDF163CC5D4BC8014013
:1017D000BB82C87D062F653F93C266C7E03DD43EFD
:1017E000CE563151E2425E3E3EFAE46127F3E43DDB
:1017F0000000D743321180BB17839337706DC6B298
:101800007F059BB50000E0400000C8421F0572C381
:1018100080B582B000AF01F0F7F900F055F800F0A4
:101820002FF900F097F800F0CBF800F0FFF800F087
:1018300063FB012000F0CAFB00F0E0FB00F0A6F91A
:101840001A4B7B607868FEF783FC03469AB26423E8
:101850007968174802F038FE01221649144802F050
:10186000B6FE01F029FA3860134B1B78DBB2002B6F
:101870000ED0124B1B683A68D21A114B1B689A4261
:1018800006D30E4A3B68136000F054FA00F068FA81
:101890000C4B1B683A68D31AB3F57A7FE1D3094A37
:1018A0003B68136000F08AFADBE700BF009900088C
:1018B000B40200204E0700203E0300204003002019
:1018C000040000204403002080B590B000AF07F171
:1018D000180328220021184605F0E4F93B1D0022D8
:1018E0001A605A609A60DA601A610123BB614FF492
:1018F0008033FB6100233B620123BB6202237B63D5
:101900004FF48033BB634FF4E013FB6307F118031C
:10191000184601F05BFD0346002B01D000F07AFA77
:101920000F237B600223BB600023FB604FF48063C6
:101930003B6100237B613B1D0221184601F0C8FF7B
:101940000346002B01D000F065FA00BF4037BD46CA
:1019500080BD000080B500AF174B184A1A60164BC7
:101960004FF482725A60144B00229A60124B00228C
:10197000DA60114B00221A610F4B00225A610E4BA4
:101980004FF400729A610C4B3022DA610A4B00224C
:101990001A62094B00225A62074B00229A62064BD8
:1019A0000A22DA62044802F021F90346002B01D032
:1019B00000F030FA00BF80BD04020020003001407A
:1019C00080B500AF174B184A1A60164B4FF482725D
:1019D0005A60144B00229A60124B0022DA60114BBD
:1019E00000221A610F4B01225A610E4B4FF4007214
:1019F0009A610C4B3022DA610A4B00221A62094BC1
:101A000000225A62074B00229A62064B0A22DA62CF
:101A1000044802F0EBF80346002B01D000F0FAF97D
:101A200000BF80BD5C0200200038004080B500AFE0
:101A3000114B124A1A60104B4FF4E1325A600E4BB0
:101A400000229A600C4B0022DA600B4B00221A61D4
:101A5000094B0C225A61084B00229A61064B002266
:101A6000DA61054802F0E0FC0346002B01D000F0EB
:101A7000D1F900BF80BD00BFB40200200038014092
:101A800080B588B000AF07F1100300221A605A60D9
:101A90009A60DA60394B9B69384A43F010039361CE
:101AA000364B9B6903F01003FB60FB68334B9B696B
:101AB000324A43F020039361304B9B6903F02003CB
:101AC000BB60BB682D4B9B692C4A43F004039361B8
:101AD0002A4B9B6903F004037B607B68274B9B695F
:101AE000264A43F008039361244B9B6903F00803E3
:101AF0003B603B6800224FF40051214801F04EFC4E
:101B000000224FF4E0511F4801F048FC00224FF43E
:101B100080711D4801F042FC4FF400533B610123EA
:101B20007B610023BB610223FB6107F110031946AF
:101B3000134801F0AFFA4FF4E0533B6101237B619E
:101B40000023BB610223FB6107F1100319460D4816
:101B500001F0A0FA4FF480733B6101237B61002305
:101B6000BB610223FB6107F110031946064801F02F
:101B700091FA00BF2037BD4680BD00BF0010024073
:101B800000100140000C01400008014080B582B007
:101B900002AF32230193022300934FF48073044A6F
:101BA00004490548FFF798FC00BFBD4680BD00BF53
:101BB000000801405C020020FC02002080B584B0D7
:101BC00000AF786039607B681B68FB603B681B680E
:101BD000BB60B968F868FFF77DFA0346002B02D0B6
:101BE0004FF0FF3309E0B968F868FFF791FA034650
:101BF000002B01D0012300E0002318461037BD461A
:101C000080BD000080B58EB000AF78603A4B1B7885
:101C100019463A4A7B6842F82130374B1B7801332A
:101C2000374A127893FBF2F101FB02F29B1ADAB207
:101C3000314B1A70334B1A78314B1B789A4205D2CC
:101C4000304B1B780133DAB22E4B1A70002387F821
:101C5000373010E097F8372097F83730274951F898
:101C600022209B0038333B4443F82C2C97F8373024
:101C7000013387F83730234B1B7897F837209A4287
:101C8000E8D3204B1B78194607F10C001E4B0422A9
:101C900003F08CFA1B4B1B785B0887F83630194B26
:101CA0001B7803F00103DBB2002B07D097F8363026
:101CB0009B0038333B4453F82C3C19E097F83630FE
:101CC000013B9B0038333B4453F82C2C97F83630BB
:101CD0009B0038333B4453F82C3C19461046FEF722
:101CE00053FF03464FF07C511846FFF755F8034663
:101CF00018463837BD4680BD3D0300201403002040
:101D0000000000203C030020BD1B000880B582B00D
:101D100000AF4FF000033B603B4619460448FFF715
:101D20001BFC0346FB713B6818460837BD4680BD67
:101D3000FC02002080B500AFFFF7E8FF0346064A2B
:101D40001360054B1B681846FFF75CFF0346034A08
:101D5000136000BF80BD00BF0C03002010030020F3
:101D6000B0B596B004AF114B1B681846FEF766FB82
:101D700004460D460E4B1B681846FEF75FFB0246F5
:101D80000B46381DCDE90223CDE90045094A402123
:101D900003F0BCFF78647B6C9AB2391D642306485B
:101DA00002F092FB00BF4837BD46B0BD0C030020D7
:101DB0001003002014990008B402002080B58AB0F6
:101DC00002AF002000F002F90F4B1B681846FEF727
:101DD00035FB02460B463846CDE900230B4A20214D
:101DE00003F094FF0021002000F03AFA084B384637
:101DF000012200920ECB00F00DFA00F0FFF800BFB8
:101E00002037BD4680BD00BF100300202C9900087C
:101E1000CCAB000880B400AF72B600BFFEE7000094
:101E200080B500AF01224FF480510B4801F0B6FAA3
:101E300000224FF48061084801F0B0FA0A2000F057
:101E400045FF01224FF48061034801F0A7FA0A2000
:101E500000F03CFF00BF80BD000C014080B582B0A7
:101E600000AF0346FB7100224FF480510C4801F093
:101E700095FA00224FF40061094801F08FFAF91D2C
:101E80004FF0FF330122074801F034FF01224FF4E5
:101E90008051034801F082FA00BF0837BD4680BD7B
:101EA000000C01400402002080B582B000AF7860D1
:101EB000396000224FF480510D4801F06FFA012281
:101EC0004FF400610A4801F069FA3B689AB24FF09A
:101ED000FF337968074801F00DFF01224FF480516C
:101EE000034801F05BFA00BF0837BD4680BD00BF64
:101EF000000C01400402002080B500AFFFF790FF06
:101F0000642000F0E3FE002000F0D6F92020FFF767
:101F1000A5FF0020FFF7A2FFB020FFF79FFFC8201A
:101F2000FFF79CFF0020FFF799FF1020FFF796FFB7
:101F30004020FFF793FFFF2000F0AAF9A120FFF750
:101F40008DFFA620FFF78AFFA820FFF787FF3F201D
:101F5000FFF784FFA420FFF781FFD320FFF77EFF68
:101F60000020FFF77BFFD520FFF778FFF020FFF779
:101F700075FFD920FFF772FF2220FFF76FFFDA20ED
:101F8000FFF76CFF1220FFF769FFDB20FFF766FF0A
:101F90002020FFF763FF8D20FFF760FF1420FFF77D
:101FA0005DFF012000F088F9002000F00FF800F03C
:101FB00025F8054B00221A80034B00225A80024B61
:101FC00001221A7100BF80BD4807002080B582B091
:101FD00000AF0346FB71FB79002B01D1002300E029
:101FE000FF234FF480621946034804F05BFE00BFF4
:101FF0000837BD4680BD00BF4803002080B582B0D1
:1020000000AF0023FB7116E0FB79503BDBB21846B2
:10201000FFF724FF0020FFF721FF1020FFF71EFF2E
:10202000FB79DB01084A134480211846FFF73CFF87
:10203000FB790133FB71FB79072BE5D900BF00BFAA
:102040000837BD4680BD00BF4803002080B483B080
:1020500000AF0346FB710B46BB7113467B7197F9CA
:102060000730002B3DDBBB793F2B3AD87B79012B26
:102070001AD1FA79BB79DB08D8B20346DB011344E5
:102080001A4AD35C5AB2BB7903F00703012101FA63
:1020900003F35BB2134359B2FA790346DB011344ED
:1020A000C9B2124AD1541DE0FA79BB79DB08D8B223
:1020B0000346DB0113440D4AD35C5AB2BB7903F0EB
:1020C0000703012101FA03F35BB2DB435BB2134068
:1020D00059B2FA790346DB011344C9B2034AD15419
:1020E00000E000BF0C37BD4680BC704748030020AD
:1020F00090B589B000AF0446384680E80E0023460C
:10210000FB73FB7B1F2B02D9FB7B7E2B01D90023AA
:1021100079E0BB68002B05D0BA68FB7B203B1344F9
:102120001B7800E03B78FB75394B1B881A46FB7D1A
:102130001344802B06DC364B5B881A467B781344AD
:10214000402B01DD00235EE00023FB614DE07A6857
:10215000FB7B203B797801FB03F31946FB690B44B9
:102160005B0013441B883B610023BB6136E03A6986
:10217000BB6902FA03F303F40043002B13D0244B92
:102180001B88DAB2BB69DBB21344D8B2204B5B8840
:10219000DAB2FB69DBB21344DBB297F830201946A0
:1021A000FFF754FF17E01A4B1B88DAB2BB69DBB2AA
:1021B0001344D8B2164B5B88DAB2FB69DBB2134426
:1021C000D9B297F83030002B0CBF01230023DBB2CB
:1021D0001A46FFF73BFFBB690133BB61FB7DBA6960
:1021E0009A42C4D3FB690133FB617B781A46FB69D1
:1021F0009342ACD3064B1A88FB7D9BB213449AB230
:10220000034B1A80FB7B18462437BD4690BD00BFA8
:102210004807002080B586B002AFF860384680E8F5
:102220000E0013E0FB6818783B7E00933B460ECB14
:10223000FFF75EFF03461A46FB681B789A4202D0FE
:10224000FB681B7808E0FB680133FB60FB681B78C8
:10225000002BE7D1FB681B7818461037BD4680BDC0
:1022600080B483B000AF03460A46FB711346BB71CE
:10227000FB799AB2054B1A80BB799AB2034B5A800C
:1022800000BF0C37BD4680BC704700BF4807002028
:1022900080B584B000AF0346FB718123FB73FB7BE9
:1022A0001846FFF7DBFDFB791846FFF7D7FD00BFA7
:1022B0001037BD4680BD000080B584B000AF034636
:1022C000FB71FB79002B05D0AF23FB73084B012278
:1022D0005A7104E0AE23FB73054B00225A71FB7B5D
:1022E0001846FFF7BBFD00BF1037BD4680BD00BFDD
:1022F0004807002080B483B000AF0E4B9B690D4AA5
:1023000043F0010393610B4B9B6903F001037B6076
:102310007B68084BDB69074A43F08053D361054B68
:10232000DB6903F080533B603B6800BF0C37BD4660
:1023300080BC70470010024080B58AB000AF786062
:1023400007F1180300221A605A609A60DA607B680D
:102350001B68374A934230D1364B9B69354A43F468
:1023600080539361334B9B6903F480537B617B699A
:10237000304B9B692F4A43F0040393612D4B9B69BB
:1023800003F004033B613B69A023BB610223FB61B3
:1023900003237B6207F118031946274800F07AFEF1
:1023A0004023BB610023FB6100233B6207F118035C
:1023B0001946214800F06EFE36E07B681B681F4A14
:1023C000934231D11B4BDB691A4A43F48043D361FA
:1023D000184BDB6903F48043FB60FB68154B9B697A
:1023E000144A43F008039361124B9B6903F00803FE
:1023F000BB60BB684FF42043BB610223FB61032336
:102400007B6207F1180319460D4800F043FE4FF4B4
:102410008043BB610023FB6100233B6207F118038B
:102420001946074800F036FE00BF2837BD4680BD7C
:102430000030014000100240000801400038004018
:10244000000C014080B588B000AF786007F1100340
:1024500000221A605A609A60DA607B681B68204A22
:10246000934239D11F4B9B691E4A43F480439361C9
:102470001C4B9B6903F48043FB60FB68194B9B6911
:10248000184A43F004039361164B9B6903F004035D
:10249000BB60BB684FF400733B6102237B61032385
:1024A000FB6107F1100319460F4800F0F3FD4FF4EC
:1024B00080633B6100237B610023BB6107F1100354
:1024C0001946094800F0E6FD00220021252000F011
:1024D000F8FC252000F011FD00BF2037BD4680BD6F
:1024E00000380140001002400008014080B400AFF5
:1024F000FEE780B400AFFEE780B400AFFEE780B433
:1025000000AFFEE780B400AFFEE780B400AF00BFCD
:10251000BD4680BC704780B400AF00BFBD4680BCE4
:10252000704780B400AF00BFBD4680BC704780B527
:1025300000AF00F0AFFB00BF80BD000080B500AF72
:10254000024802F069F800BF80BD00BFB40200205D
:1025500080B485B000AF786039607B68FB6002E0D2
:10256000FB680133FB60FB681B78202BF8D0FB680D
:102570001B78002B01D100233CE03B68FA681A600D
:1025800002E0FB680133FB60FB681B78002B03D083
:10259000FB681B78202BF4D1FB681B78002B09D03B
:1025A000FB6800221A70FB680133FB6002E0FB68E5
:1025B0000133FB60FB681B78202BF8D0FB681B788D
:1025C000002B04D13B6800225A60012312E03B68D3
:1025D000FA685A6002E0FB680133FB60FB681B7815
:1025E000002B03D0FB681B78202BF4D1FB68002262
:1025F0001A70012318461437BD4680BC704700008E
:1026000080B594B002AF786039603B68002B09D088
:1026100007F108003B6800937B680E4A402103F0F5
:1026200075FB06E007F108007B680B4A402103F0C8
:102630006DFB07F108031846FDF78AFD03469AB2C1
:1026400007F108016423054801F03EFF00BF483749
:10265000BD4680BD3899000848990008B4020020A2
:1026600080B582B000AF0A4A3B4692E8030083E897
:1026700003003B461846FDF76BFD03469AB2394608
:102680006423044801F020FF00BF0837BD4680BD29
:1026900054990008B402002080B59CB002AF786065
:1026A00007F1500319467868FFF752FF0346002BE5
:1026B00002D1FFF7D5FF2FE13B6D7B660BE07B6E10
:1026C0001B78184602F030FD0346DAB27B6E1A70B2
:1026D0007B6E01337B667B6E1B78002BEFD13B6DED
:1026E0008F491846FDF73CFD0346002B0DD18D4B5D
:1026F00001221A708C4B00221A708C4B00221A7027
:1027000000218B48FFF77CFF06E13B6D89491846A5
:10271000FDF726FD0346002B07D1824B00221A70DD
:1027200000218548FFF76CFFF6E03B6D83491846B2
:10273000FDF716FD0346002B0ED1814B1B6807F1F8
:102740004000804A102103F0E1FA07F140031946E6
:102750007D48FFF755FFDFE03B6D7C491846FDF7EC
:10276000FFFC0346002B22D17B6D002B02D1FFF72B
:1027700077FFD1E07B6D184602F0D1FC03463B6643
:102780003B6E002B01D101233B666D4A3B6E13600B
:102790006B4B1B6807F130006A4A102103F0B6FA50
:1027A00007F1300319466A48FFF72AFFB4E03B6D92
:1027B00068491846FDF7D4FC0346002B0ED1664B42
:1027C0001B7807F12C00654A042103F09FFA07F1FA
:1027D0002C0319466248FFF713FF9DE03B6D6149EA
:1027E0001846FDF7BDFC0346002B2ED17B6D002B58
:1027F00002D1FFF735FF8FE07B6D184602F08FFCAA
:102800000346FB65FB6D002B01D10123FB65FB6DCE
:102810000A2B01D90A23FB65FB6DDAB24E4B1A7005
:10282000414B00221A70414B00221A704A4B1B7810
:1028300007F12800494A042103F068FA07F1280348
:1028400019464948FFF7DCFE66E03B6D47491846EC
:10285000FDF786FC0346002B15D1454B1B68184637
:10286000FDF7ECFD02460B4607F11800CDE9002309
:10287000404A102103F04AFA07F1180319463E486E
:10288000FFF7BEFE48E03B6D3C491846FDF768FC8B
:102890000346002B3ED17B6D002B02D1FFF7E0FEFB
:1028A0003AE07B6D184602F037FC03461846FEF707
:1028B0001FFA0346BB654FF00001B86DFEF70AFC36
:1028C0000346002B02D04FF00003BB654FF07E5152
:1028D000B86DFEF71DFC0346002B02D04FF07E536F
:1028E000BB65234ABB6D1360214B1B681846FDF77F
:1028F000A5FD02460B4607F10800CDE900231D4A5D
:10290000102103F003FA07F1080319461C48FFF7EA
:1029100077FE01E0FFF7A4FE6837BD4680BD00BF2B
:102920005C9900083E0300203C0300203D0300208A
:10293000649900086C990008749900087C99000853
:1029400004000020849900088899000890990008E4
:1029500098990008A099000800000020A899000894
:10296000AC990008B4990008BC990008C499000803
:1029700008000020D0990008D8990008E4990008C0
:10298000F099000880B582B000AF78607B681B6862
:10299000214A93423CD1214B1B78002B0AD1204B7A
:1029A0001B78022B2FD11D4B01221A701D4B0022C8
:1029B0001A7028E01A4B1B780A2B0CD1194B1B7884
:1029C0001A46194B00219954144B00221A701648CC
:1029D000FFF762FE17E0134B1B783E2B0BD8114B11
:1029E0001B785A1CD1B20F4A11701A460C4B197839
:1029F0000D4B995407E0094B00221A70094B002235
:102A00001A70FFF72DFE01220549084801F0DFFD8D
:102A100000BF0837BD4680BD003801409107002047
:102A20004E0700209007002050070020B40200202D
:102A300080B400AF01231846BD4680BC704780B506
:102A400082B000AF7860396004F038F9034616228E
:102A50001A604FF0FF3318460837BD4680BD80B579
:102A600082B000AF78604FF0FF317868FFF7E7FF82
:102A7000FEE780B586B000AFF860B9607A600023E9
:102A80007B610AE0AFF300800146BB685A1CBA6064
:102A9000CAB21A707B6901337B617A697B689A429A
:102AA000F0DB7B6818461837BD4680BD80B586B020
:102AB00000AFF860B9607A6000237B6109E0BB6811
:102AC0005A1CBA601B781846AFF300807B6901334B
:102AD0007B617A697B689A42F1DB7B68184618371C
:102AE000BD4680BD80B483B000AF78604FF0FF3347
:102AF00018460C37BD4680BC704780B483B000AF29
:102B0000786039603B684FF400525A6000231846E1
:102B10000C37BD4680BC704780B483B000AF78608E
:102B2000012318460C37BD4680BC704780B485B081
:102B300000AFF860B9607A60002318461437BD46CC
:102B400080BC704780B586B000AF7860144A154BE2
:102B5000D31A7B617B693B61134B1B68002B02D14D
:102B6000114B124A1A60104B1A687B6813443A6979
:102B70009A4207D204F0A2F803460C221A604FF0E2
:102B8000FF3309E0084B1B68FB60074B1A687B6842
:102B90001344054A1360FB6818461837BD4680BDCC
:102BA000005000200004000094070020E8080020E6
:102BB00080B400AF00BFBD4680BC7047FFF7F8FF90
:102BC0000B480C490C4A002302E0D458C45004338B
:102BD000C4188C42F9D3094A094C002301E0136060
:102BE0000432A242FBD304F06FF8FEF711FE7047E7
:102BF00000000020E801002028B00008E8010020C3
:102C0000E8080020FEE7000080B500AF084B1B6815
:102C1000074A43F010031360032000F047F90F2028
:102C200000F008F8FFF766FB0023184680BD00BFE0
:102C30000020024080B582B000AF7860124B1A6865
:102C4000124B1B7819464FF47A73B3FBF1F3B2FBC6
:102C5000F3F3184600F05FF90346002B01D001237F
:102C60000EE07B680F2B0AD8002279684FF0FF3006
:102C700000F027F9064A7B681360002300E0012377
:102C800018460837BD4680BD0C0000201400002007
:102C90001000002080B400AF054B1B781A46054B8E
:102CA0001B681344034A136000BFBD4680BC7047D5
:102CB000140000209807002080B400AF024B1B686E
:102CC0001846BD4680BC70479807002080B584B088
:102CD00000AF7860FFF7F0FFB8607B68FB60FB68CF
:102CE000B3F1FF3F05D00A4B1B781A46FB6813442B
:102CF000FB6000BFFFF7E0FF0246BB68D31AFA682B
:102D00009A42F7D800BF00BF1037BD4680BD00BF54
:102D10001400002080B485B000AF78607B6803F0B9
:102D20000703FB600C4BDB68BB60BA684FF6FF0320
:102D30001340BB60FB681A02BB68134343F0BF63D8
:102D400043F40033BB60044ABB68D36000BF143750
:102D5000BD4680BC704700BF00ED00E080B400AF0E
:102D6000044BDB681B0A03F007031846BD4680BC12
:102D7000704700BF00ED00E080B483B000AF0346B1
:102D8000FB7197F90730002B0BDBFB7903F01F0277
:102D9000064997F907305B09012000FA02F241F871
:102DA000232000BF0C37BD4680BC704700E100E027
:102DB00080B483B000AF03463960FB7197F90730E8
:102DC000002B0ADB3B68DAB20C4997F90730120195
:102DD000D2B20B4483F800230AE03B68DAB2084918
:102DE000FB7903F00F03043B1201D2B20B441A76B5
:102DF00000BF0C37BD4680BC704700BF00E100E05B
:102E000000ED00E080B489B000AFF860B9607A608E
:102E1000FB6803F00703FB61FB69C3F10703042BA5
:102E200028BF0423BB61FB690433062B02D9FB696D
:102E3000033B00E000237B614FF0FF32BB6902FAE5
:102E400003F3DA43BB681A407B699A404FF0FF31C5
:102E50007B6901FA03F3D9437B680B40134318469F
:102E60002437BD4680BC704780B582B000AF786023
:102E70007B68013BB3F1807F01D301230FE00A4A55
:102E80007B68013B53600F214FF0FF30FFF790FF4D
:102E9000054B00229A60044B07221A600023184653
:102EA0000837BD4680BD00BF10E000E080B582B0AD
:102EB00000AF78607868FFF72DFF00BF0837BD4688
:102EC00080BD80B586B000AF0346B9607A60FB7301
:102ED00000237B61FFF742FF78617A68B9687869FF
:102EE000FFF790FF024697F90F3011461846FFF79B
:102EF0005FFF00BF1837BD4680BD80B582B000AF10
:102F00000346FB7197F907301846FFF735FF00BFFE
:102F10000837BD4680BD80B582B000AF7860786864
:102F2000FFF7A2FF034618460837BD4680BD80B4B0
:102F300085B000AF78600023FB737B6893F8213085
:102F4000DBB2022B08D07B6804229A637B680022E4
:102F500083F82020012320E07B681B681A687B68C7
:102F60001B6822F00E021A607B681B681A687B6877
:102F70001B6822F001021A607B681A6C7B68DB6BAD
:102F8000012101FA02F25A607B68012283F82120B4
:102F90007B68002283F82020FB7B18461437BD464F
:102FA00080BC704780B584B000AF78600023FB73AD
:102FB0007B6893F82130DBB2022B05D07B680422BA
:102FC0009A630123FB7351E07B681B681A687B6876
:102FD0001B6822F00E021A607B681B681A687B6807
:102FE0001B6822F001021A607B681B68224A934228
:102FF00029D07B681B68214A934222D07B681B68DA
:103000001F4A93421AD07B681B681E4A934212D013
:103010007B681B681C4A93420AD07B681B681B4A6A
:10302000934202D14FF480130EE04FF080730BE017
:103030004FF4803308E04FF4805305E04FF4807381
:1030400002E0102300E00123114A53607B68012253
:1030500083F821207B68002283F820207B685B6B4B
:10306000002B03D07B685B6B78689847FB7B184626
:103070001037BD4680BD00BF080002401C00024062
:103080003000024044000240580002406C00024000
:103090000000024080B48BB000AF7860396000233C
:1030A0007B6200233B6269E101227B6A02FA03F33F
:1030B000FB613B681B68FA691340BB61BA69FB6935
:1030C0009A4240F058813B685B689A4A93425ED0CE
:1030D000984A934275D8984A934258D0964A934258
:1030E0006FD8964A934252D0944A934269D8944AF0
:1030F00093424CD0924A934263D8924A934246D02C
:10310000904A93425DD8122B2AD8122B59D801A28B
:1031100052F823F08F310008693100087B31000834
:10312000BD310008C3310008C3310008C3310008B5
:10313000C3310008C3310008C3310008C33100089F
:10314000C3310008C3310008C3310008C33100088F
:10315000C3310008C331000871310008853100080F
:10316000794A934213D02CE03B68DB683B6229E04C
:103170003B68DB6804333B6224E03B68DB68083370
:103180003B621FE03B68DB680C333B621AE03B6844
:103190009B68002B02D104233B6213E03B689B68D1
:1031A000012B05D108233B627B68FA691A6109E0AB
:1031B00008233B627B68FA695A6103E000233B62A3
:1031C00000E000BFBB69FF2B01D87B6801E07B6892
:1031D00004337B61BB69FF2B02D87B6A9B0002E052
:1031E0007B6A083B9B003B617B691A680F213B6946
:1031F00001FA03F3DB431A40396A3B6901FA03F32E
:103200001A437B691A603B685B6803F08053002BAC
:1032100000F0B1804D4B9B694C4A43F00103936130
:103220004A4B9B6903F00103BB60BB68484A7B6A59
:103230009B08023352F82330FB607B6A03F00303E0
:103240009B000F2202FA03F3DB43FA681340FB6092
:103250007B68404A934213D07B683F4A93420DD02B
:103260007B683E4A934207D07B683D4A934201D136
:10327000032306E0042304E0022302E0012300E02C
:1032800000237A6A02F0030292009340FA68134323
:10329000FB602F497B6A9B080233FA6841F82320C0
:1032A0003B685B6803F48013002B06D02D4B9A68B3
:1032B0002C49BB6913438B6006E02A4B9A68BB69B3
:1032C000DB43284913408B603B685B6803F40013C1
:1032D000002B06D0234BDA682249BB691343CB602D
:1032E00006E0204BDA68BB69DB431E491340CB6024
:1032F0003B685B6803F40033002B06D0194B5A6817
:103300001849BB6913434B6006E0164B5A68BB690A
:10331000DB43144913404B603B685B6803F4803324
:10332000002B21D00F4B1A680E49BB6913430B6069
:1033300021E000BF00003210000031100000221018
:1033400000002110000012100000111000100240B7
:103350000000014000080140000C01400010014045
:1033600000140140000401400B4B1A68BB69DB43A9
:10337000094913400B607B6A01337B623B681A6822
:103380007B6A22FA03F3002B7FF48EAE00BF00BFEE
:103390002C37BD4680BC70470004014080B483B028
:1033A00000AF78600B467B8013467B707B78002BE8
:1033B00003D07A887B681A6103E07B881A047B68F3
:1033C0001A6100BF0C37BD4680BC704780B586B01F
:1033D00000AF78607B68002B01D1012372E27B682B
:1033E0001B6803F00103002B00F08780924B5B68A1
:1033F00003F00C03042B0CD08F4B5B6803F00C0321
:10340000082B12D18C4B5B6803F48033B3F5803FFB
:103410000BD1894B1B6803F40033002B6CD07B6805
:103420005B68002B68D101234CE27B685B68B3F5D5
:10343000803F06D1804B1B687F4A43F48033136082
:103440002EE07B685B68002B0CD17B4B1B687A4AB3
:1034500023F480331360784B1B68774A23F480236E
:1034600013601DE07B685B68B3F5A02F0CD1724B35
:103470001B68714A43F4802313606F4B1B686E4ACC
:1034800043F4803313600BE06B4B1B686A4A23F4F0
:1034900080331360684B1B68674A23F480231360F2
:1034A0007B685B68002B13D0FFF706FC386108E0EF
:1034B000FFF702FC02463B69D31A642B01D90323B0
:1034C00000E25D4B1B6803F40033002BF0D014E0E6
:1034D000FFF7F2FB386108E0FFF7EEFB02463B69BD
:1034E000D31A642B01D90323ECE1534B1B6803F47B
:1034F0000033002BF0D100E000BF7B681B6803F0B5
:103500000203002B63D04C4B5B6803F00C03002BD1
:103510000BD0494B5B6803F00C03082B1CD1464BC6
:103520005B6803F48033002B16D1434B1B6803F018
:103530000203002B05D07B681B69012B01D00123FE
:10354000C0E13D4B1B6823F0F8027B685B69DB0040
:10355000394913430B603AE07B681B69002B20D08C
:10356000364B01221A60FFF7A7FB386108E0FFF72E
:10357000A3FB02463B69D31A022B01D90323A1E125
:103580002D4B1B6803F00203002BF0D02A4B1B6865
:1035900023F0F8027B685B69DB00274913430B606B
:1035A00015E0264B00221A60FFF786FB386108E021
:1035B000FFF782FB02463B69D31A022B01D9032392
:1035C00080E11D4B1B6803F00203002BF0D17B68E8
:1035D0001B6803F00803002B3AD07B689B69002B23
:1035E00019D0174B01221A60FFF766FB386108E01B
:1035F000FFF762FB02463B69D31A022B01D9032372
:1036000060E10D4B5B6A03F00203002BF0D0012058
:1036100000F0CEFA1CE00A4B00221A60FFF74CFBC8
:1036200038610FE0FFF748FB02463B69D31A022BD3
:1036300008D9032346E100BF0010024000004242C7
:1036400080044242924B5B6A03F00203002BE9D1F3
:103650007B681B6803F00403002B00F0A6800023A6
:10366000FB758B4BDB6903F08053002B0DD1884B2E
:10367000DB69874A43F08053D361854BDB6903F0F4
:103680008053BB60BB680123FB75824B1B6803F44E
:103690008073002B18D17F4B1B687E4A43F48073E4
:1036A0001360FFF709FB386108E0FFF705FB0246EE
:1036B0003B69D31A642B01D9032303E1754B1B68C3
:1036C00003F48073002BF0D07B68DB68012B06D1FC
:1036D0006F4B1B6A6E4A43F0010313622DE07B6857
:1036E000DB68002B0CD16A4B1B6A694A23F001038B
:1036F0001362674B1B6A664A23F0040313621CE0E3
:103700007B68DB68052B0CD1614B1B6A604A43F078
:10371000040313625E4B1B6A5D4A43F001031362AC
:103720000BE05B4B1B6A5A4A23F001031362584BB0
:103730001B6A574A23F0040313627B68DB68002B83
:1037400015D0FFF7B9FA38610AE0FFF7B5FA02467B
:103750003B69D31A41F28832934201D90323B1E085
:103760004B4B1B6A03F00203002BEED014E0FFF773
:10377000A3FA38610AE0FFF79FFA02463B69D31AC1
:1037800041F28832934201D903239BE0404B1B6AEC
:1037900003F00203002BEED1FB7D012B05D13C4B46
:1037A000DB693B4A23F08053D3617B68DB69002BE4
:1037B00000F08780364B5B6803F00C03082B61D068
:1037C0007B68DB69022B46D1334B00221A60FFF77E
:1037D00073FA386108E0FFF76FFA02463B69D31AC3
:1037E000022B01D903236DE0294B1B6803F0007302
:1037F000002BF0D17B681B6AB3F5803F08D1244BC6
:103800005B6823F400327B689B68214913434B605B
:103810001F4B5B6823F474127B68196A7B685B6AD0
:103820000B431B4913434B601B4B01221A60FFF7EC
:1038300043FA386108E0FFF73FFA02463B69D31AC2
:10384000022B01D903233DE0114B1B6803F00073E9
:10385000002BF0D035E0104B00221A60FFF72CFA55
:10386000386108E0FFF728FA02463B69D31A022BB9
:1038700001D9032326E0064B1B6803F00073002BDD
:10388000F0D11EE07B68DB69012B07D1012319E031
:103890000010024000700040600042420B4B5B6829
:1038A000FB60FB6803F480327B681B6A9A4206D196
:1038B000FB6803F470127B685B6A9A4201D00123B3
:1038C00000E0002318461837BD4680BD00100240B6
:1038D00080B584B000AF786039607B68002B01D17F
:1038E0000123D0E06A4B1B6803F007033A689A4251
:1038F00010D9674B1B6823F0070265493B681343E7
:103900000B60634B1B6803F007033A689A4201D0CF
:103910000123B8E07B681B6803F00203002B20D072
:103920007B681B6803F00403002B05D0594B5B68D0
:10393000584A43F4E06353607B681B6803F0080354
:10394000002B05D0534B5B68524A43F460535360DD
:10395000504B5B6823F0F0027B689B684D49134332
:103960004B607B681B6803F00103002B40D07B6831
:103970005B68012B07D1474B1B6803F40033002B16
:1039800015D101237FE07B685B68022B07D1414B97
:103990001B6803F00073002B09D1012373E03D4B3A
:1039A0001B6803F00203002B01D101236BE0394BAC
:1039B0005B6823F003027B685B68364913434B6006
:1039C000FFF77AF9F8600AE0FFF776F90246FB683C
:1039D000D31A41F28832934201D9032353E02D4B8D
:1039E0005B6803F00C027B685B689B009A42EBD13A
:1039F000274B1B6803F007033A689A4210D2244B06
:103A00001B6823F0070222493B6813430B60204BDD
:103A10001B6803F007033A689A4201D0012332E0A1
:103A20007B681B6803F00403002B08D0194B5B680C
:103A300023F4E0627B68DB68164913434B607B68C4
:103A40001B6803F00803002B09D0124B5B6823F4BA
:103A500060527B681B69DB000E4913434B6000F02A
:103A600021F802460B4B5B681B0903F00F030A4960
:103A7000CB5C22FA03F3094A1360094B1B68184612
:103A8000FFF7D8F8002318461037BD4680BD00BFA9
:103A90000020024000100240D8AB00080C000020BB
:103AA0001000002080B487B000AF0023FB6000232B
:103AB000BB6000237B6100237B6000233B611E4BC6
:103AC0005B68FB60FB6803F00C03042B02D0082B3F
:103AD00003D027E0194B3B6127E0FB689B0C03F008
:103AE0000F03174AD35C7B60FB6803F48033002B21
:103AF00010D0114B5B685B0C03F00103114AD35CDF
:103B0000BB607B680D4A03FB02F2BB68B2FBF3F3B8
:103B10007B6104E07B680C4A02FB03F37B617B69F9
:103B20003B6102E0054B3B6100BF3B6918461C3717
:103B3000BD4680BC704700BF0010024000127A00F2
:103B4000F0AB000800AC000800093D0080B400AFF5
:103B5000024B1B681846BD4680BC70470C00002015
:103B600080B500AFFFF7F2FF0246054B5B681B0A0A
:103B700003F007030349CB5C22FA03F3184680BD28
:103B800000100240E8AB000880B500AFFFF7DEFF91
:103B90000246054B5B68DB0A03F007030349CB5C75
:103BA00022FA03F3184680BD00100240E8AB00087B
:103BB00080B485B000AF78600A4B1B680A4AA2FB4C
:103BC00003235B0A7A6802FB03F3FB6000BFFB6818
:103BD0005A1EFA60002BF9D100BF00BF1437BD4652
:103BE00080BC70470C000020D34D621080B582B0BD
:103BF00000AF78607B68002B01D1012376E07B6801
:103C00005B6A002B08D17B685B68B3F5827F09D0C3
:103C10007B680022DA6105E07B6800221A617B681C
:103C200000225A617B6800229A627B6893F85130C7
:103C3000DBB2002B06D17B68002283F85020786825
:103C4000FEF77AFB7B68022283F851207B681B68B1
:103C50001A687B681B6822F040021A607B685B6808
:103C600003F482727B689B6803F404431A437B6805
:103C7000DB6803F400631A437B681B6903F00203EB
:103C80001A437B685B6903F001031A437B689B69F5
:103C900003F400731A437B68DB6903F038031A43AB
:103CA0007B681B6A03F0800342EA03017B689B6A1E
:103CB00003F400527B681B680A431A607B689B69A7
:103CC0001A0C7B681B6802F004025A607B681B6850
:103CD000DA697B681B6822F40062DA617B68002283
:103CE0005A657B68012283F8512000231846083763
:103CF000BD4680BD80B588B000AFF860B9603B605C
:103D00001346FB800023FB77FB6893F85030012BB0
:103D100001D102232DE1FB68012283F85020FEF738
:103D2000CBFFB861FB88FB82FB6893F85130DBB2B4
:103D3000012B02D00223FB7716E1BB68002B02D0D7
:103D4000FB88002B02D10123FB770DE1FB680322E6
:103D500083F85120FB6800225A65FB68BA681A6331
:103D6000FB68FA889A86FB68FA88DA86FB68002284
:103D70009A63FB6800229A87FB680022DA87FB6857
:103D800000225A64FB6800221A64FB689B68B3F542
:103D9000004F0FD1FB681B681A68FB681B6822F094
:103DA00040021A60FB681B681A68FB681B6842F4D3
:103DB00080421A60FB681B681B6803F04003402BBD
:103DC00007D0FB681B681A68FB681B6842F040025A
:103DD0001A60FB68DB68B3F5006F4FD1FB685B6866
:103DE000002B02D0FB8A012B42D1FB681B6B1A8887
:103DF000FB681B68DA60FB681B6B9A1CFB681A6324
:103E0000FB68DB8E9BB2013B9AB2FB68DA862FE03F
:103E1000FB681B689B6803F00203022B12D1FB684E
:103E20001B6B1A88FB681B68DA60FB681B6B9A1CAB
:103E3000FB681A63FB68DB8E9BB2013B9AB2FB689E
:103E4000DA8615E0FEF738FF0246BB69D31A3A68F6
:103E50009A4203D83B68B3F1FF3F02D13B68002B85
:103E600006D10323FB77FB68012283F851207BE016
:103E7000FB68DB8E9BB2002BCAD150E0FB685B680D
:103E8000002B02D0FB8A012B44D1FB681A6BFB6824
:103E90001B680C3312781A70FB681B6B5A1CFB688A
:103EA0001A63FB68DB8E9BB2013B9AB2FB68DA8631
:103EB00030E0FB681B689B6803F00203022B13D100
:103EC000FB681A6BFB681B680C3312781A70FB686E
:103ED0001B6B5A1CFB681A63FB68DB8E9BB2013BB1
:103EE0009AB2FB68DA8615E0FEF7E6FE0246BB6989
:103EF000D31A3A689A4203D83B68B3F1FF3F02D124
:103F00003B68002B06D10323FB77FB68012283F873
:103F1000512029E0FB68DB8E9BB2002BC9D1BA6926
:103F20003968F86800F062FA0346002B02D0FB689B
:103F300020225A65FB689B68002B0AD100233B6155
:103F4000FB681B68DB683B61FB681B689B683B6127
:103F50003B69FB685B6D002B02D00123FB7703E01C
:103F6000FB68012283F85120FB68002283F850206F
:103F7000FB7F18462037BD4680BD80B58CB000AFB2
:103F8000F860B9607A607B800123FB62002387F8C8
:103F90002B30FB6893F85030012B01D1022398E1BC
:103FA000FB68012283F85020FEF786FE7862FB68EA
:103FB00093F8513087F82330FB685B68FB617B889E
:103FC0007B8397F82330012B0FD0FB69B3F5827FF9
:103FD00007D1FB689B68002B03D197F82330042B93
:103FE00003D0022387F82B306DE1BB68002B05D08E
:103FF0007B68002B02D07B88002B03D1012387F83C
:104000002B3060E1FB6893F85130DBB2042B03D016
:10401000FB68052283F85120FB6800225A65FB6883
:104020007A689A63FB687A88DA87FB687A889A8765
:10403000FB68BA681A63FB687A88DA86FB687A8854
:104040009A86FB6800221A64FB6800225A64FB68A7
:104050001B681B6803F04003402B07D0FB681B68FC
:104060001A68FB681B6842F040021A60FB68DB6854
:10407000B3F5006F7CD1FB685B68002B02D07B8BB3
:10408000012B6AD1FB681B6B1A88FB681B68DA601E
:10409000FB681B6B9A1CFB681A63FB68DB8E9BB288
:1040A000013B9AB2FB68DA8657E0FB681B689B68A5
:1040B00003F00203022B1BD1FB68DB8E9BB2002BAB
:1040C00016D0FB6A012B13D1FB681B6B1A88FB68A7
:1040D0001B68DA60FB681B6B9A1CFB681A63FB6841
:1040E000DB8E9BB2013B9AB2FB68DA860023FB624F
:1040F000FB681B689B6803F00103012B19D1FB6867
:10410000DB8F9BB2002B14D0FB681B68DA68FB685E
:104110009B6B92B21A80FB689B6B9A1CFB689A633C
:10412000FB68DB8F9BB2013B9AB2FB68DA87012305
:10413000FB62FEF7C1FD02467B6AD31ABA6B9A4254
:104140000BD8BB6BB3F1FF3F07D0032387F82B30AD
:10415000FB68012283F85120B5E0FB68DB8E9BB23F
:10416000002BA2D1FB68DB8F9BB2002B9DD180E09E
:10417000FB685B68002B02D07B8B012B6FD1FB6847
:104180001A6BFB681B680C3312781A70FB681B6B88
:104190005A1CFB681A63FB68DB8E9BB2013B9AB228
:1041A000FB68DA865BE0FB681B689B6803F0020330
:1041B000022B1CD1FB68DB8E9BB2002B17D0FB6A55
:1041C000012B14D1FB681A6BFB681B680C33127847
:1041D0001A70FB681B6B5A1CFB681A63FB68DB8E4A
:1041E0009BB2013B9AB2FB68DA860023FB62FB6854
:1041F0001B689B6803F00103012B19D1FB68DB8F5F
:104200009BB2002B14D0FB681B68DA68FB689B6BC1
:10421000D2B21A70FB689B6B5A1CFB689A63FB68EE
:10422000DB8F9BB2013B9AB2FB68DA870123FB620A
:10423000FEF742FD02467B6AD31ABA6B9A4203D854
:10424000BB6BB3F1FF3F02D1BB6B002B07D1032344
:1042500087F82B30FB68012283F8512033E0FB689C
:10426000DB8E9BB2002B9ED1FB68DB8F9BB2002BB9
:1042700099D17A6AB96BF86800F0B8F80346002B58
:1042800006D0012387F82B30FB6820225A651AE0FC
:10429000FB689B68002B0AD100237B61FB681B68CD
:1042A000DB687B61FB681B689B687B617B69FB68E3
:1042B0005B6D002B03D0012387F82B3003E0FB68F4
:1042C000012283F85120FB68002283F8502097F8E0
:1042D0002B3018463037BD4680BD000080B588B011
:1042E00000AFF860B9603B601346FB71FEF7E4FC79
:1042F0000246BB6A9B1A3A681344FB61FEF7DCFC7A
:10430000B861394B1B685B011B0DFA6902FB03F3B3
:104310007B6154E03B68B3F1FF3F50D0FEF7CCFC2B
:104320000246BB69D31AFA699A4202D9FB69002B8B
:104330003DD1FB681B685A68FB681B6822F0E002ED
:104340005A60FB685B68B3F5827F11D1FB689B689C
:10435000B3F5004F04D0FB689B68B3F5806F07D1BD
:10436000FB681B681A68FB681B6822F040021A6031
:10437000FB689B6AB3F5005F0FD1FB681B681A6886
:10438000FB681B6822F400521A60FB681B681A68FD
:10439000FB681B6842F400521A60FB68012283F834
:1043A0005120FB68002283F85020032317E07B692B
:1043B000002B01D10023FB617B69013B7B61FB6822
:1043C0001B689A68BB681340BA689A420CBF012305
:1043D0000023DBB21A46FB799A429BD10023184690
:1043E0002037BD4680BD00BF0C00002080B586B0E0
:1043F00002AFF860B9607A607B680093BB68002206
:104400008021F868FFF76AFF0346002B07D0FB689E
:104410005B6D43F02002FB685A65032300E0002334
:1044200018461037BD4680BD80B582B000AF7860B9
:104430007B68002B01D1012342E07B6893F8413077
:10444000DBB2002B06D17B68002283F8402078681D
:10445000FDF7F8FF7B68242283F841207B681B6806
:10446000DA687B681B6822F40052DA60786800F032
:10447000C5FD7B681B681A697B681B6822F4904243
:104480001A617B681B685A697B681B6822F02A02E4
:104490005A617B681B68DA687B681B6842F40052CB
:1044A000DA607B6800225A647B68202283F841200E
:1044B0007B68202283F842207B6800225A63002315
:1044C00018460837BD4680BD80B58AB002AFF86097
:1044D000B9603B601346FB8000237B61FB6893F867
:1044E0004130DBB2202B6DD1BB68002B02D0FB88A2
:1044F000002B01D1012366E0FB6800225A64FB68AF
:10450000212283F84120FEF7D7FB7861FB68FA8807
:104510009A84FB68FA88DA84FB689B68B3F5805F4D
:1045200008D1FB681B69002B04D10023FB61BB6829
:10453000BB6103E0BB68FB610023BB612AE03B6811
:1045400000937B6900228021F86800F014FB034689
:10455000002B01D0032336E0FB69002B0BD1BB6994
:104560001B881A46FB681B68C2F308025A60BB69C5
:104570000233BB6107E0FB691A78FB681B685A606D
:10458000FB690133FB61FB68DB8C9BB2013B9AB298
:10459000FB68DA84FB68DB8C9BB2002BCFD13B68D5
:1045A00000937B6900224021F86800F0E4FA03469A
:1045B000002B01D0032306E0FB68202283F8412072
:1045C000002300E0022318462037BD4680BD80B599
:1045D00084B000AFF860B9601346FB80FB6893F8C5
:1045E0004230DBB2202B12D1BB68002B02D0FB88FB
:1045F000002B01D101230BE0FB6800221A63FB882A
:104600001A46B968F86800F024FB034600E002236C
:1046100018461037BD4680BD80B5BAB000AF78608F
:104620007B681B681B68C7F8E4307B681B68DB6825
:10463000C7F8E0307B681B685B69C7F8DC30002393
:10464000C7F8D8300023C7F8D430D7F8E43003F0E7
:104650000F03C7F8D830D7F8D830002B0FD1D7F8D0
:10466000E43003F02003002B09D0D7F8E03003F04A
:104670002003002B03D0786800F001FC5BE2D7F840
:10468000D830002B00F0DE80D7F8DC3003F00103D7
:10469000002B06D1D7F8E03003F49073002B00F024
:1046A000D180D7F8E43003F00103002B0BD0D7F80A
:1046B000E03003F48073002B05D07B685B6C43F023
:1046C00001027B685A64D7F8E43003F00403002B3E
:1046D0000BD0D7F8DC3003F00103002B05D07B684A
:1046E0005B6C43F002027B685A64D7F8E43003F055
:1046F0000203002B0BD0D7F8DC3003F00103002BB2
:1047000005D07B685B6C43F004027B685A64D7F881
:10471000E43003F00803002B11D0D7F8E03003F0A9
:104720002003002B05D1D7F8DC3003F00103002B68
:1047300005D07B685B6C43F008027B685A647B6839
:104740005B6C002B00F0F281D7F8E43003F020031B
:10475000002B08D0D7F8E03003F02003002B02D064
:10476000786800F08CFB7B681B685B6903F0400392
:10477000002B14BF01230023DBB2C7F8D4307B68C1
:104780005B6C03F00803002B03D1D7F8D430002B67
:104790004FD0786800F096FA7B681B685B6903F07D
:1047A0004003002B41D07B681B681433C7F89C3052
:1047B000D7F89C3053E8003FC7F89830D7F89830C6
:1047C00023F04003C7F8D0307B681B681433D7F858
:1047D000D020C7F8A820C7F8A430D7F8A410D7F87D
:1047E000A82041E80023C7F8A030D7F8A030002B5C
:1047F000D9D17B68DB6B002B13D07B68DB6B7E4AE7
:104800005A637B68DB6B1846FEF7CCFB0346002B34
:1048100016D07B68DB6B5B6B7A68D26B104698476F
:104820000EE0786800F093F90AE0786800F08FF9FC
:1048300006E0786800F08BF97B6800225A6475E125
:1048400000BF73E17B681B6B012B40F04F81D7F8F1
:10485000E43003F01003002B00F04881D7F8E0307B
:1048600003F01003002B00F041810023BB607B6844
:104870001B681B68BB607B681B685B68BB60BB68B0
:104880007B681B685B6903F04003002B00F0B68077
:104890007B68DB6B1B685B68A7F8BE30B7F8BE307F
:1048A000002B00F045817B689B8DB7F8BE209A42B3
:1048B00080F03E817B68B7F8BE20DA857B68DB6BD1
:1048C0009B69202B00F088807B681B680C33C7F83D
:1048D0008830D7F8883053E8003FC7F88430D7F8DD
:1048E000843023F48073C7F8B8307B681B680C33BE
:1048F000D7F8B820C7F89420C7F89030D7F89010B0
:10490000D7F8942041E80023C7F88C30D7F88C30D2
:10491000002BD9D17B681B6814337B677B6F53E80E
:10492000003F3B673B6F23F00103C7F8B4307B685F
:104930001B681433D7F8B420C7F88020FB67F96FE1
:10494000D7F8802041E80023BB67BB6F002BE1D183
:104950007B681B6814333B663B6E53E8003FFB6586
:10496000FB6D23F04003C7F8B0307B681B6814333D
:10497000D7F8B020FA66BB66B96EFA6E41E800233C
:104980007B667B6E002BE3D17B68202283F842207C
:104990007B6800221A637B681B680C33FB64FB6C2A
:1049A00053E8003FBB64BB6C23F01003C7F8AC3086
:1049B0007B681B680C33D7F8AC20BA657B65796DD2
:1049C000BA6D41E800233B653B6D002BE3D17B686A
:1049D000DB6B1846FEF7ABFA7B6802225A637B68F2
:1049E0009A8D7B68DB8D9BB2D31A9BB2194678688F
:1049F00000F0B6F89CE000BF894D00087B689A8DF6
:104A00007B68DB8D9BB2D31AA7F8CE307B68DB8D39
:104A10009BB2002B00F08E80B7F8CE30002B00F058
:104A200089807B681B680C33BB63BB6B53E8003F1A
:104A30007B637B6B23F49073C7F8C8307B681B687B
:104A40000C33D7F8C8207A643B64396C7A6C41E83F
:104A50000023FB63FB6B002BE3D17B681B681433E3
:104A60007B627B6A53E8003F3B623B6A23F00103B1
:104A7000C7F8C4307B681B681433D7F8C4203A6386
:104A8000FB62F96A3A6B41E80023BB62BB6A002B08
:104A9000E3D17B68202283F842207B6800221A63DE
:104AA0007B681B680C333B613B6953E8003FFB604C
:104AB000FB6823F01003C7F8C0307B681B680C3319
:104AC000D7F8C020FA61BB61B969FA6941E80023EF
:104AD0007B617B69002BE3D17B6802225A63B7F8C4
:104AE000CE301946786800F03BF823E0D7F8E43080
:104AF00003F08003002B09D0D7F8E03003F08003E7
:104B0000002B03D0786800F053F914E0D7F8E430B4
:104B100003F04003002B0ED0D7F8E03003F0400341
:104B2000002B08D0786800F092F904E000BF02E0A2
:104B300000BF00E000BFE837BD4680BD80B483B051
:104B400000AF786000BF0C37BD4680BC704780B4B2
:104B500083B000AF786000BF0C37BD4680BC7047A3
:104B600080B483B000AF78600B467B8000BF0C3709
:104B7000BD4680BC704780B590B000AFF860B960AA
:104B80003B601346FB7150E0BB6CB3F1FF3F4CD070
:104B9000BB6C002B07D0FEF78FF802463B68D31A98
:104BA000BA6C9A4241D2FB681B680C33BB62BB6A89
:104BB00053E8003F7B627B6A23F4D073FB63FB689E
:104BC0001B680C33FA6B7A633B63396B7A6B41E891
:104BD0000023FB62FB6A002BE5D1FB681B681433E2
:104BE0007B617B6953E8003F3B613B6923F0010334
:104BF000BB63FB681B681433BA6B3A62FB61F969EB
:104C00003A6A41E80023BB61BB69002BE5D1FB6830
:104C1000202283F84120FB68202283F84220FB6891
:104C2000002283F8402003230FE0FB681B681A680A
:104C3000BB681340BA689A420CBF01230023DBB261
:104C40001A46FB799A429FD0002318464037BD464A
:104C500080BD80B485B000AFF860B9601346FB80BA
:104C6000FB68BA689A62FB68FA889A85FB68FA88DA
:104C7000DA85FB6800225A64FB68222283F842200E
:104C8000FB681B69002B07D0FB681B68DA68FB68B0
:104C90001B6842F48072DA60FB681B685A69FB6823
:104CA0001B6842F001025A61FB681B68DA68FB6806
:104CB0001B6842F02002DA60002318461437BD4614
:104CC00080BC704780B495B000AF78607B681B688B
:104CD0000C337B637B6B53E8003F3B633B6B23F4FC
:104CE0009073FB647B681B680C33FA6C3A64FB635B
:104CF000F96B3A6C41E80023BB63BB6B002BE5D139
:104D00007B681B6814333B623B6A53E8003FFB61DE
:104D1000FB6923F00103BB647B681B681433BA6C26
:104D2000FA62BB62B96AFA6A41E800237B627B6A75
:104D3000002BE5D17B681B6B012B19D17B681B68AD
:104D40000C33FB60FB6853E8003FBB60BB6823F09B
:104D500010037B647B681B680C337A6CBA617B61DF
:104D60007969BA6941E800233B613B69002BE5D1D1
:104D70007B68202283F842207B6800221A6300BFF0
:104D80005437BD4680BC704780B584B000AF7860B2
:104D90007B685B6AFB60FB680022DA85FB680022A7
:104DA000DA84F868FFF7D3FE00BF1037BD4680BD38
:104DB00080B485B000AF78607B6893F84130DBB297
:104DC000212B3ED17B689B68B3F5805F14D17B6853
:104DD0001B69002B10D17B681B6AFB60FB681B887A
:104DE0001A467B681B68C2F308025A607B681B6A1C
:104DF0009A1C7B681A6208E07B681B6A591C7A68F7
:104E000011621A787B681B685A607B68DB8C9BB2E6
:104E1000013B9BB27A681946D184002B0FD17B6885
:104E20001B68DA687B681B6822F08002DA607B68A6
:104E30001B68DA687B681B6842F04002DA60002376
:104E400000E0022318461437BD4680BC704780B589
:104E500082B000AF78607B681B68DA687B681B688B
:104E600022F04002DA607B68202283F841207868D3
:104E7000FFF764FE002318460837BD4680BD80B5A5
:104E80008CB000AF78607B6893F84230DBB2222BA5
:104E900040F0AE807B689B68B3F5805F17D17B687C
:104EA0001B69002B13D10023FB627B689B6ABB62EA
:104EB0007B681B685B689BB2C3F308039AB2BB6A4A
:104EC0001A807B689B6A9A1C7B689A6226E07B68E2
:104ED0009B6AFB620023BB627B689B68B3F5805FC3
:104EE00007D07B689B68002B0AD17B681B69002B6D
:104EF00006D17B681B685B68DAB2FB6A1A7008E04F
:104F00007B681B685B68DBB203F07F03DAB2FB6A85
:104F10001A707B689B6A5A1C7B689A627B68DB8D7F
:104F20009BB2013B9BB27A681946D185002B5DD1BB
:104F30007B681B68DA687B681B6822F02002DA60F5
:104F40007B681B68DA687B681B6822F48072DA6011
:104F50007B681B685A697B681B6822F001025A61F2
:104F60007B68202283F842207B6800225A637B689A
:104F70001B6B012B35D17B6800221A637B681B6891
:104F80000C337B617B6953E8003F3B613B6923F055
:104F900010037B627B681B680C337A6A3A62FB61A0
:104FA000F9693A6A41E80023BB61BB69002BE5D18E
:104FB0007B681B681B6803F01003102B0AD10023C9
:104FC000FB607B681B681B68FB607B681B685B6819
:104FD000FB60FB687B689B8D19467868FFF7C0FD16
:104FE00002E07868FDF7CEFC002302E0002300E039
:104FF000022318463037BD4680BD000080B584B01E
:1050000000AF78607B681B681B6923F440517B68A4
:10501000DA687B681B680A431A617B689A687B6858
:105020001B691A437B685B691343BB607B681B6821
:10503000DB6823F4B05323F00C037A681268B96874
:105040000B43D3607B681B685B6923F440717B680A
:105050009A697B681B680A435A617B681B682C4A03
:10506000934203D1FEF790FDF86002E0FEF778FD71
:10507000F860FA6813469B0013449A001A447B6850
:105080005B689B00B2FBF3F3224AA2FB03235B099C
:105090001901FA6813469B0013449A001A447B686E
:1050A0005B689B00B2FBF3F21A4BA3FB02035B09A4
:1050B000642000FB03F3D31A1B013233154AA2FB11
:1050C00003235B0903F0F0031944FA6813469B00BD
:1050D00013449A001A447B685B689B00B2FBF3F2AE
:1050E0000C4BA3FB02035B09642000FB03F3D31A00
:1050F0001B013233074AA2FB03235B0903F00F02B3
:105100007B681B680A449A6000BF1037BD4680BDAB
:10511000003801401F85EB51002101F0E5BC0A2257
:10512000002101F06BBD0000034B1B5C03F0030387
:10513000022B08BF2038704791AC0008022B10B535
:105140000AD0920803680C68013A002A40F8044B20
:1051500041F8043BF6DC10BD02440C78037800F8FB
:10516000014B01F8013B131A002BF6DCF3E7F8B50D
:105170000C46154607461E469847002829462046F5
:105180000ADAB047002805DB29463846B047002830
:105190000ADB3C462046F8BDB0470028FADC294629
:1051A0003846B0470028F4DB2C46F3E72DE9F04FF2
:1051B0009A4640EA02039B070646144697B01AD166
:1051C000B2F1040818BF4FF001080023029304FB5A
:1051D00001F733190193062906EB070303932AD835
:1051E000019B039A934210D3029B002B40F01F8136
:1051F00017B0BDE8F08F4FF00208E6E743462246BD
:1052000039462846FFF79AFF0EE0019D0DE02F1B5F
:1052100029463846D047002809DDB8F1000FEDD106
:105220002B683A682A603B603D46AE42EFD3019B53
:1052300023440193D4E74FEA51093F1B072904FB9C
:105240000969374421D0282944D9CD0865435346FC
:1052500006EB450271193046FFF789FF494609EB15
:10526000050253468346481BFFF781FF3A468146B5
:105270005346791BA7EB4500FFF779FF02464946E5
:1052800053465846FFF773FF8146B8F1000F24D10B
:105290003368D9F800203260C9F8003006EB040BFF
:1052A000B9465D460023BB4535D831465846049380
:1052B000D0470028049B3EDC0AD1B8F1000F13D17F
:1052C0002B68DBF800202A60CBF80030254401234E
:1052D000A344E8E73A46B346D1E743462246494667
:1052E0003046FFF72BFFD9E743462246594628466A
:1052F000FFF724FFEAE70BD1B8F1000F14D13B68A8
:10530000D9F800203A60C9F800300123A9EB04095C
:10531000049FBB450FD9002B43D1019B039A9342B5
:10532000BFF462AF019D36E0434622464946384607
:10533000FFF704FFE9E7314638460593D0473B1BAA
:1053400000280493059BD6DAB8F1000F06D0434637
:10535000224639465846FFF7F1FE05E0DBF80030FB
:105360003A68CBF800203B60049FB0E743462246F2
:1053700039462846FFF7E2FE0CE02F1B2946384647
:10538000D047002809DDB8F1000FEFD12B683A684B
:105390002A603B603D46AE42EFD3019B234401931C
:1053A000BBE7ABEB0503AA1B9A42A8BF1A460193C1
:1053B0002AB143463046ABEB0201FFF7BFFE039B29
:1053C000A9EB0707A3EB0902121BBA4228BF3A4612
:1053D0002AB1039943465846891AFFF7AFFEDDF814
:1053E0000490039B4F45A3EB070004D933460646C0
:1053F0001846B946019FA74223D9029BB7FBF4F197
:10540000072B0ED8029A16AB03EBC203B9FBF4F2DA
:1054100043F8406C43F83C2C029B01330293064650
:10542000D5E653462246FFF7C1FEA1450CD8029BA4
:10543000013B0293029A16AB03EBC20353E910013E
:10544000EDE7A1457FF6D0AEB9FBF4F13046E6E7D3
:10545000002B2DE9F0471F46BBBF03F100431F4659
:1054600000232D2388B01446129A109D1370149BAC
:10547000DDF84CA023F02008B8F1460F05D0B8F1B4
:10548000450F00D10135022300E0032307AA04924F
:1054900006AACDE902A2CDE9003522463B4601F03D
:1054A000E7FCB8F1470F064602D1119BDB0722D576
:1054B000B8F1460F06EB050910D13378302B0AD12D
:1054C0000022002320463946FBF778FA18B9C5F1C7
:1054D0000105CAF80050DAF8003099440022002390
:1054E00020463946FBF76AFA08B1CDF81C90302205
:1054F000079B4B4507D33046079B159A9B1B1360B0
:1055000008B0BDE8F087591C07911A70F0E7034610
:10551000F7B5002903F8022BB6BF2D222B224942F2
:10552000092942702ADD0DF1070217460A2691FB70
:10553000F6F5944606FB151430340CF8014C0C4675
:10554000632C294602F1FF32F1DC3031ACF1020468
:1055500002F8011C2246411CBA420AD30DF109028D
:10556000A2EB0C02BC4288BF00221344181A03B0FD
:10557000F0BD12F8015B01F8015FEDE73023303137
:105580008370C170031DF1E72DE9F04F91B00C4617
:10559000DDF8688016461F46054601F08BFB036860
:1055A00018460993FAF7D4FD00230E93D8F800307B
:1055B0000A90073323F0070303F1080294F81890C8
:1055C000D4F800B0C8F80020D3E900A852464346FA
:1055D000C4E9122328F000430B934FF0FF325046EA
:1055E0009C4B0B99FBF71CFA70BB4FF0FF325046F7
:1055F000984B0B99FBF7F6F930BB0022002350467D
:105600004146FBF7E5F910B12D2384F84330924A67
:10561000924BB9F1470F94BF9046984603234FF041
:10562000000A23612BF004032360334621462846F9
:1056300000970FAA00F0D6F9013040F090804FF0AB
:10564000FF3011B0BDE8F08F524643465046414608
:10565000FBF7E6F948B1B8F1000FB8BF2D23804A37
:10566000B8BF84F843307F4BD3E7636809F0DF01AC
:105670005A1C42D106236360002206920EAACDE98D
:1056800004920DAA4BF4806303920DF13302CDE92D
:1056900001322360636852460093284643460B91CB
:1056A000FFF7D6FE0B99804647290D9908D1C81CF3
:1056B00002DB6368994240DDA9F102095FFA89F9CA
:1056C000B9F1650F1FD84A46013904F150000D9118
:1056D000FFF71DFF0E9A82461318012A236102DC90
:1056E0002268D20701D5013323619DF83330002BA6
:1056F0009BD02D2384F8433097E74729BCD1002B5A
:10570000BAD10123B7E7B9F1660F18D10029636850
:105710000BDD216113B92268D00702D501330B4498
:1057200023614FF0000AA165DFE713B92268D207B1
:1057300001D50233F4E70123F2E74FF067090E9B2E
:10574000994205DB23682161D807EAD54B1CE7E7BE
:105750000029CCBF0122C1F102021344E0E7236813
:105760005A0507D42369424631462846B8470130D6
:105770002BD164E7B9F1650F40F2DD80D4E9120165
:1057800000220023FBF71AF9002833D00123314609
:105790002846354AB84701303FF451AFDDE90D23C3
:1057A0009A4202DB2368D8070FD5DDE90923314689
:1057B0002846B84701303FF442AF4FF0000804F1EB
:1057C0001A090E9B013B434509DC23689B0700F146
:1057D0000481E0680F9B9842B8BF184631E7012367
:1057E0004A4631462846B84701303FF428AF08F111
:1057F0000108E6E70D9B002B38DC012331462846E3
:10580000194AB84701303FF41AAFDDE90D321343AE
:1058100002D12368D907D8D5DDE9092331462846C6
:10582000B84701303FF40BAF4FF0000904F11A0AFA
:105830000D9B5B424B4501DC0E9B94E701235246D6
:1058400031462846B84701303FF4F9AE09F1010965
:10585000EEE700BFFFFFEF7F02AC000806AC0008D8
:105860000AAC00080EAC000812AC00080E9AA36D3A
:105870009A42A8BF1A46002A914637DC4FF0000B27
:1058800029EAE97904F11A02D4F858A0AAEB09032D
:105890005B4533DCDDE90D239A423BDB2368DA0705
:1058A00038D4DDE90D32A2EB0309A2EB0A029145DF
:1058B000A8BF9146B9F1000F34DC4FF0000829EA87
:1058C000E97904F11A0ADDE90D239B1AA3EB090318
:1058D00043457FF77AAF0123524631462846B84701
:1058E00001303FF4ACAE08F10108ECE71346314655
:1058F00042462846B8470130C0D1A0E601233146D0
:1059000028460B92B84701303FF499AE0B9A0BF141
:10591000010BB9E73146DDE909232846B8470130D4
:10592000BFD18CE64B463146284608EB0A02B84701
:105930000130C2D183E60E9A012A01DCDB0739D59A
:105940000123424631462846B84701303FF477AE3E
:10595000DDE9092331462846B84701303FF46FAEF0
:10596000D4E9120100220023DDF83890FBF726F875
:10597000D8B909F1FF3308F1010231462846B8478A
:1059800001300ED15BE601234A4631462846B8472E
:1059900001303FF454AE08F101080E9B013B434532
:1059A000F1DC534604F15002DEE64FF0000804F14A
:1059B0001A09F2E701234246DFE701234A4631464E
:1059C0002846B84701303FF43AAE08F10108E368D1
:1059D0000F995B1A4345F0DCFBE64FF0000804F139
:1059E0001909F4E72DE9F047164699468A680B69CC
:1059F00007469342B8BF1346336091F843200C46E4
:105A0000DDF820800AB1013333602368990642BF74
:105A1000336802333360256815F0060506D104F1BA
:105A2000190AE36832689B1AAB422BDC94F84320D6
:105A3000131E226818BF0123920630D44946384607
:105A400004F14302C047013023D02368226903F0E8
:105A50000603042B14BF002533684FF0000608BF6F
:105A6000E56804F11A0408BFED1A54F8123C08BFA7
:105A700025EAE5759342C4BF9B1AED18B5421AD1C9
:105A8000002008E00123524649463846C04701300D
:105A900003D14FF0FF30BDE8F0870135C1E730207A
:105AA000E11881F843005A1C94F84510224402334F
:105AB00082F84310C2E70123224649463846C047D0
:105AC0000130E6D00136D9E72DE9FF470F7E914638
:105AD000782F80460C469A460C9D01F1430207D868
