:020000040800F2
:10000000005000202D1B0008B11A0008BD1A00087E
:10001000C31A0008C91A0008CF1A0008000000001F
:10002000000000000000000000000000D51A0008D9
:10003000E11A000800000000ED1A0008F91A000893
:10004000791B0008791B0008791B0008791B000840
:10005000791B0008791B0008791B0008791B000830
:10006000791B0008791B0008791B0008791B000820
:10007000051B0008791B0008791B0008791B000884
:10008000791B0008791B0008791B0008791B000800
:10009000791B0008791B0008791B0008791B0008F0
:1000A000791B0008791B0008791B0008791B0008E0
:1000B000791B0008791B0008791B0008791B0008D0
:1000C000791B0008791B0008791B0008791B0008C0
:1000D000791B0008191B0008791B0008791B000810
:0C00E000791B0008791B0008791B000840
:1000EC0010B5054C237833B9044B13B10448AFF366
:1000FC0000800123237010BD0C00002000000000C4
:10010C00F844000808B5034B1BB103490348AFF38F
:10011C00008008BD0000000010000020F84400081A
:10012C0080B485B000AFF860B9607A60FA68BB68DB
:10013C00D31A7A689A4294BF01230023DBB2184683
:10014C001437BD4680BC704780B500AF054B5B785B
:10015C00002B05D100F022FD024B01225A7000E069
:10016C0000BF80BD2800002080B584B000AF78604F
:10017C0000F050FCF860FB68002B19D0FB681B7872
:10018C0083F00103DBB2002B12D1FB689B687A6809
:10019C00D31A002B0DDBFB6800221A70FB680022BF
:1001AC005A70FB6800221A73FB6800225A7300E035
:1001BC0000BF1037BD4680BD80B584B000AF7860FD
:1001CC007B68002B06D0254B7A68043307CA83E87A
:1001DC00070005E0214B224A043307CA83E80700D5
:1001EC001E4B5B68002B03D11C4B4FF47A725A6088
:1001FC001A4B9B68002B02D1184B02229A60174BAA
:10020C00DB68002B02D1154B0122DA6000F0D0F82C
:10021C00F860124AFB681361104AFB6853610F4A7D
:10022C00FB68936101F092F800F09AFF00F0E0FB9C
:10023C0000F00AF9F86800F04DFC04F06FF809487A
:10024C0000F0CCFD054B00225A70FFF77DFF034BED
:10025C0001221A7000BF1037BD4680BD2800002057
:10026C002C4500084400002080B5EAB000AF4EE0F9
:10027C0004F0BEF8034687F8A73197F8A731194662
:10028C00284800F0C1FD034687F8A63197F8A6313F
:10029C00012B3CD13B461946224800F025FF034672
:1002AC00002B34D007F188023B461146184600F06B
:1002BC00D3F807F5D473A3F590731B78002B26D0D5
:1002CC000023C7F8A031AA2387F81431552387F8E7
:1002DC00153107F5D07207F58A73991C07F188035D
:1002EC00981C13468A2200F00DFD034687F8A531B1
:1002FC0097F8A531002B0AD1D7F8A0319BB2023365
:10030C009AB207F58A731146184604F09BF804F06C
:10031C0059F80346002BABD100BF00BF07F5D477CB
:10032C00BD4680BD4400002080B582B000AF1F4B9D
:10033C001B7883F00103DBB2002B02D00020FFF707
:10034C003BFF00F035F8786004F036F8FFF78CFFCF
:10035C007868FFF709FF154B1B69144A9268194618
:10036C007868FFF7DDFE0346002B09D00F4A7B6847
:10037C00136100F0F1FF38607968386800F00CFF09
:10038C000A4B9B69094A526819467868FFF7C8FE00
:10039C000346002B05D0054A7B689361786800F012
:1003AC0099FB00BF0837BD4680BD00BF2800002068
:1003BC0080B500AF01F034FC0346184680BD80B513
:1003CC0086B000AFF860B96011461A460B46FB7157
:1003DC001346BB710023FB82FB680233862200218B
:1003EC00184604F049F8FB6801229A70FB68FA7908
:1003FC00DA70BB689A78FB681A71BB68DA78FB68AC
:10040C005A71FB68BA7983F888203B6A002B11D0AB
:10041C00BB8C002B0ED08023BB82BA8CBB8A934240
:10042C0028BF1346FB82FB680833FA8A396A1846E0
:10043C0004F04EF8FB68FA8ADA80FB6801221A7025
:10044C0000BF1837BD4680BD80B500AF00F0D0FAB4
:10045C0000F0F3F900BF80BD80B5A6B002AF7860A4
:10046C0039607B68002B00F01C813B68002B00F08E
:10047C0018818A220021386803F0FEFF7B685878C7
:10048C007B6899787B68DB781A4600F0CDFA7B683C
:10049C005B78012B1FD000230193002300930123D1
:1004AC00042279683868FFF78AFF3B68DA783B6882
:1004BC0093F888301946104600F0D4FA00F06EFB21
:1004CC007B68D8787B6899783B6893F888301A46B3
:1004DC0000F080FBE6E07B68DB78402B00F38A8041
:1004EC00002B40F3B480013B3F2B00F2B08001A203
:1004FC0052F823F00506000805060008050600085A
:10050C005B0600085B0600085B0600085B0600083B
:10051C005B0600085B0600085B0600085B0600082B
:10052C005B0600085B0600085B0600085B0600081B
:10053C0005060008450600085B0600085B06000877
:10054C005B0600085B0600085B0600085B060008FB
:10055C005B0600085B0600085B0600085B060008EB
:10056C005B0600085B0600085B0600085B060008DB
:10057C004506000845060008450600084506000823
:10058C0045060008450600085B0600085B060008E7
:10059C005B0600085B0600085B0600085B060008AB
:1005AC005B0600085B0600085B0600085B0600089B
:1005BC0045060008450600085B0600085B060008B7
:1005CC005B0600085B0600085B0600085B0600087B
:1005DC005B0600085B0600085B0600085B0600086B
:1005EC005B0600085B0600085B0600085B0600085B
:1005FC00450600087F2B2AD107F10C038422002129
:10060C00184603F039FF7B68D8787B68991D7B68A6
:10061C009A8807F10C0300F017F93A7BB7F88E3083
:10062C00019307F10C0301330093134602227968FE
:10063C003868FFF7C4FE1AE00023019300230093EF
:10064C000423022279683868FFF7B9FE0FE000F046
:10065C0097FA032000F0D8FA0023019300230093AB
:10066C000223042279683868FFF7A9FE00BF3B68B3
:10067C001B78002B16D03B68DA783B6893F88830EF
:10068C001946104600F0EEF900F088FA7B68D8782D
:10069C007B6899783B6893F888301A4600F09AFA90
:1006AC0000E000BF9037BD4680BD00BF80B483B072
:1006BC0000AF78600B46FB707B68002B07D07B6823
:1006CC00FA781A707B680022A3F8822000E000BF41
:1006DC000C37BD4680BC704780B584B000AFF86065
:1006EC000B467A607B817B89002B04D003217868D0
:1006FC00FFF7DCFF03E000217868FFF7D7FF103726
:10070C00BD4680BD80B584B000AFF8600B467A6002
:10071C007B817B68002B1FD0FB68002B02D17B896F
:10072C00002B19D17B89802B04D903217868FFF722
:10073C00BDFF12E07B6800221A707B687A89A3F8EF
:10074C0082207B89002B08D07B6801337A89F96879
:10075C00184603F0BDFE00E000BF1037BD4680BD5B
:10076C0080B584B000AFF8600B467A607B817B89E2
:10077C00002B04D003217868FFF798FF12E07B6808
:10078C0000221A707B6800225A707B6801229A70D2
:10079C007B680022DA707B6801221A717B68042264
:1007AC00A3F882201037BD4680BD80B584B000AF61
:1007BC00F8600B467A607B817B89002B04D0032187
:1007CC007868FFF773FF09E07B6800221A707B687A
:1007DC0000225A707B680122A3F882201037BD4694
:1007EC0080BD80B588B000AFF8600B467A607B8125
:1007FC007B89002B04D003217868FFF757FF19E0A1
:10080C0007F11403184600F08DFD7B69DAB27B68A2
:10081C005A707B691B0ADAB27B689A707B691B0C75
:10082C00DAB27B68DA707B680322A3F882207B68DB
:10083C0000221A702037BD4680BD80B400AF00BFC7
:10084C00BD4680BC7047000080B584B000AFB96075
:10085C007B600346FB731346BB817B68002B00F067
:10086C00C28006217868FFF721FFFB7B402B00F349
:10087C008B80002B40F3B280013B3F2B00F2AE800B
:10088C0001A252F823F000BFA7090008C309000811
:10089C00B5090008E9090008E9090008E909000898
:1008AC00E9090008E9090008E9090008E909000854
:1008BC00E9090008E9090008E9090008E909000844
:1008CC00E9090008D1090008DF090008E909000856
:1008DC00E9090008E9090008E9090008E909000824
:1008EC00E9090008E9090008E9090008E909000814
:1008FC00E9090008E9090008E9090008E909000804
:10090C00E9090008DF090008DF090008DF09000811
:10091C00DF090008DF090008DF090008E909000801
:10092C00E9090008E9090008E9090008E9090008D3
:10093C00E9090008E9090008E9090008E9090008C3
:10094C00E9090008DF090008DF090008E9090008C7
:10095C00E9090008E9090008E9090008E9090008A3
:10096C00E9090008E9090008E9090008E909000893
:10097C00E9090008E9090008E9090008E909000883
:10098C00E9090008DF0900087F2B27D1BB897A68A9
:10099C001946B868FFF7A0FE26E0BB897A681946AD
:1009AC00B868FFF7AFFE1FE0BB897A681946B868D4
:1009BC00FFF7D6FE18E0BB897A681946B868FFF7CE
:1009CC00F4FE11E0BB897A681946B868FFF709FF95
:1009DC000AE004217868FFF769FE05E002217868D7
:1009EC00FFF764FE00E000BF1037BD4680BD00BFBE
:1009FC0080B500AF10220021044803F03DFD142205
:100A0C000021034803F038FD00BF80BD80010020A9
:100A1C009001002080B400AF024B1846BD4680BC4C
:100A2C00704700BF8001002080B483B000AF034644
:100A3C00FB710B46BB7113467B71094AFB799370B2
:100A4C00074ABB791370064A7B795370044B9B6839
:100A5C000133034A936000BF0C37BD4680BC70471E
:100A6C009001002080B483B000AF03460A46FB71AE
:100A7C001346BB710D4AFB7913710C4ABB79D370C9
:100A8C00FB79022B05D1094BDB680133074AD36094
:100A9C0007E0FB79042B04D1044B1B690133034A97
:100AAC00136100BF0C37BD4680BC7047900100201D
:100ABC0080B400AF064B00221A70054B00225A601E
:100ACC00034B01221A7200BFBD4680BC704700BFA9
:100ADC00A401002080B582B000AF7860124B1B7A65
:100AEC0083F00103DBB2002B01D0FFF7E1FF0E4BCB
:100AFC005B687A68D31AB3F57A7F11D30A4B1B78EB
:100B0C00002B14BF01230023DBB283F00103DBB203
:100B1C0003F00103DAB2044B1A70034A7B6853608A
:100B2C0000BF0837BD4680BDA401002080B400AFD3
:100B3C00044B1B680133034A136000BFBD4680BCE5
:100B4C00704700BFB001002080B400AF044B5B685D
:100B5C000133034A536000BFBD4680BC704700BFE1
:100B6C00B001002080B400AF044B9B680133034AF2
:100B7C00936000BFBD4680BC704700BFB001002031
:100B8C0080B400AF044BDB680133034AD36000BF71
:100B9C00BD4680BC704700BFB001002080B400AFE0
:100BAC00044B1B690133034A136100BFBD4680BC73
:100BBC00704700BFB001002080B400AF044B9B69AC
:100BCC000133034A936100BFBD4680BC704700BF30
:100BDC00B001002080B483B000AF0346FB710B461C
:100BEC00BB7113467B71074AFB791377054ABB79B6
:100BFC005377044A7B79937700BF0C37BD4680BC92
:100C0C00704700BFB001002080B483B000AF034632
:100C1C00FB71064BDB7F002B02D1044AFB79D377A7
:100C2C0000BF0C37BD4680BC704700BFB001002030
:100C3C0080B487B000AF786039604FF6FF73FB82E9
:100C4C007B68002B01D1FB8A2DE000233B6125E062
:100C5C007A683B6913441B789BB21B029AB2FB8ADD
:100C6C005340FB820023FB7312E0B7F91630002BC4
:100C7C0008DAFB8A5B009BB283F4815383F0010397
:100C8C00FB8202E0FB8A5B00FB82FB7B0133FB7384
:100C9C00FB7B072BE9D93B6901333B613A693B6824
:100CAC009A42D5D3FB8A18461C37BD4680BC704788
:100CBC0080B483B000AF78607B681B781AB27B6815
:100CCC0001331B781B021BB213431BB29BB2184699
:100CDC000C37BD4680BC704780B483B000AF7860E1
:100CEC000B467B807B88DAB27B681A707B881B0A88
:100CFC009AB27B680133D2B21A7000BF0C37BD4672
:100D0C0080BC704780B588B000AFF860B9607A607D
:100D1C003B608023FB61FB68002B05D0BB68002B7C
:100D2C0002D03B68002B01D1052353E0FB689B8864
:100D3C001A46FB69934201D205234BE0FB689B8862
:100D4C000833BB61BB698A2B03D8BA697B689A42AA
:100D5C0001D905233EE0FB681A78BB681A70BB68A2
:100D6C000133FA6852781A70BB680233FA689278C9
:100D7C001A70BB680333FA68D2781A70BB681A1DF4
:100D8C00FB689B8819461046FFF7A6FFFB689B88FB
:100D9C00002B08D0BB68981DFB68991DFB689B88CD
:100DAC001A4603F095FBFB689B8806331946B86816
:100DBC00FFF73EFF0346FB82FB689B880633BA684D
:100DCC001344FA8A11461846FFF786FF3B68BA6946
:100DDC001A60002318462037BD4680BD80B582B00E
:100DEC0000AF78607B68002B09D04FF49E72002115
:100DFC00786803F041FB7B6800221A7000E000BFAA
:100E0C000837BD4680BD000080B584B000AF786067
:100E1C000B46FB707B68002B01D100235FE17B68E4
:100E2C00D3F820315A1C7B68C3F820217B68002240
:100E3C0083F81C217B681B78042B00F2468101A2ED
:100E4C0052F823F0650E0008830E0008EB0E000824
:100E5C00B30F0008E30F0008FB78AA2B03D17B68C3
:100E6C0001221A703AE17B68D3F828315A1C7B684E
:100E7C00C3F8282132E1FB78552B0CD17B6800227A
:100E8C00DA717B6800221A817B6800229A737B6876
:100E9C0002221A7022E1FB78AA2B0ED17B68D3F8C0
:100EAC0028315A1C7B68C3F828217B68D3F8383169
:100EBC005A1C7B68C3F8382110E17B68D3F82831C1
:100ECC005A1C7B68C3F828217B68D3F838315A1C2C
:100EDC007B68C3F838217B6800221A70FEE07B68BF
:100EEC00DB791A467B681344FA785A707B68DB7995
:100EFC001A467B681344FA78DA737B68DB79013322
:100F0C00DAB27B68DA717B68DB79052B40F2E18021
:100F1C007B6805331846FFF7CBFE03461A467B6801
:100F2C005A817B685B89802B17D97B68D3F82C316D
:100F3C005A1C7B68C3F82C21FFF714FE0220FFF724
:100F4C0063FE7B68D3F838315A1C7B68C3F83821B0
:100F5C007B6800221A700323C1E07B685B78012B4D
:100F6C0012D07B68D3F834315A1C7B68C3F8342117
:100F7C007B68D3F838315A1C7B68C3F838217B68FE
:100F8C0000221A700523AAE07B685B89002B03D131
:100F9C007B6804221A709CE07B6800221A817B68B3
:100FAC0003221A7095E07B681B8906337A68134418
:100FBC00FA78DA737B681B8901339AB27B681A81E1
:100FCC007B681A897B685B899A42C0F084807B6855
:100FDC0004221A707FE07B689B7B1A467B68134463
:100FEC00FA781A737B689B7B0133DAB27B689A734D
:100FFC007B689B7B012B70D97B680C331846FFF701
:10100C0057FE0346FB817B6803F10F027B685B890B
:10101C00063319461046FFF70BFE0346BB81FA89CF
:10102C00BB899A4217D07B68D3F830315A1C7B6845
:10103C00C3F83021FFF788FD0120FFF7E5FD7B6841
:10104C00D3F838315A1C7B68C3F838217B680022EE
:10105C001A70042343E07B685A787B6883F89620E7
:10106C007B689A787B6883F897207B68DA787B6852
:10107C0083F898207B681A797B6883F899207B68C1
:10108C005A897B68A3F89A207B685B89002B0AD06D
:10109C007B6803F19C007B6803F115017B685B891D
:1010AC001A4603F015FA7B68012283F81C217B6831
:1010BC00D3F824315A1C7B68C3F82421FFF736FD82
:1010CC007B6800221A70012309E07B6800221A70E9
:1010DC0004E000BF02E000BF00E000BF00231846A0
:1010EC001037BD4680BD00BF80B582B000AF7860C0
:1010FC0039607B68002B02D03B68002B01D10023A8
:10110C0016E07B6893F81C3183F00103DBB2002BF3
:10111C0001D000230CE03A687B6810469633862297
:10112C00194603F0D5F97B68002283F81C210123B2
:10113C0018460837BD4680BD80B485B000AFF86056
:10114C00B9607A60FA68BB68D31A7A689A4294BF1D
:10115C0001230023DBB218461437BD4680BC704710
:10116C0080B500AF00F008F8024B012283F8D020C4
:10117C0000BF80BDD001002080B500AFD42200217B
:10118C00044803F079F9034B012283F8D02000BF07
:10119C0080BD00BFD001002080B586B000AF786064
:1011AC0039607B6823F07F437B605D4B93F8D030D4
:1011BC0083F00103DBB2002B01D0FFF7D1FF00233A
:1011CC00FB758EE0FB7D012202FA03F3BB60544BEE
:1011DC00D3F8CC207B685A40BB681340002B1DD041
:1011EC007A68BB681340002B08D04D4BD3F8CC2049
:1011FC00BB6813434A4AC2F8CC3008E0484BD3F8DA
:10120C00CC20BB68DB431340454AC2F8CC30FB7D95
:10121C00434A02339B0013443A685A60404B1A68A5
:10122C003F4BD3F8CC305A40BB681340002B29D02D
:10123C00FB7D3B4A02339B0013445B683222194608
:10124C003868FFF779FF0346002B1BD0344BD3F8DB
:10125C00CC20BB681340002B06D0314B1A68BB68FE
:10126C0013432F4A136006E02D4B1A68BB68DB430F
:10127C0013402B4A1360FB7D294A1A339B001344FD
:10128C003A685A60264B5A68254B1B685A40BB6813
:10129C001340002B22D0FB7D214A1A339B001344B0
:1012AC005B684FF47A7219463868FFF745FF0346BE
:1012BC00002B13D01A4B1A68BB681340002B06D0B6
:1012CC00174B5A68BB681343154A536006E0144B1E
:1012DC005A68BB68DB431340114A5360FB7D0133F2
:1012EC00FB75FB7D172B7FF66DAF0D4B9B683B6140
:1012FC000B4B1A680A4B5B68534023F07F43084A38
:10130C009360074B9A683B69DB431340FB60FB68B7
:10131C00002B01D0FFF750FC00BF1837BD4680BD35
:10132C00D001002080B483B000AF78607B68002BC4
:10133C0005D07B68044A07CA83E8070000E000BFB9
:10134C000C37BD4680BC7047D001002080B500AF83
:10135C0002F0DEFF00BF80BD80B582B000AF00237D
:10136C007B600023FB7021E000237B707A1CFB78F0
:10137C001146184602F0A2FF0346BB70BB7883F0FF
:10138C000103DBB2002B0DD17B7883F00103DBB2C0
:10139C00002B08D0FB78012202FA03F37A6813437E
:1013AC007B6000E000BFFB780133FB70FB78172BF0
:1013BC00DAD97B6823F07F4318460837BD4680BDD9
:1013CC0080B584B000AF0346FB710023FB7314E0BF
:1013DC0000224FF400510F4801F00DF9962000F057
:1013EC0029FC01224FF400510A4801F004F996201F
:1013FC0000F020FCFB7B0133FB73FA7BFB799A42F8
:10140C00E6D34FF4FA7000F015FC00BF1037BD4660
:10141C0080BD00BF00100140B0B58CB000AF00F033
:10142C00A7FB00F04DF800F0B1F900F091F900F0D5
:10143C008DF800F00DF900F061F907F1200300229E
:10144C001A605A609A60DA60194B9B69184A43F02B
:10145C0010039361164B9B6903F010033B603B68D0
:10146C004FF400533B6201237B620023BB620223D7
:10147C00FB6207F1200319460E4800F021FF032000
:10148C00FFF79EFF0C4B3C1D1D460FCD0FC495E87E
:10149C00070003C42280391D64231922074802F077
:1014AC00F2F80020FEF788FEFEF73EFFFCE700BFD7
:1014BC000010024000100140104500087803002085
:1014CC0080B590B000AF07F1180328220021184610
:1014DC0002F0D2FF3B1D00221A605A609A60DA605B
:1014EC001A610123BB614FF48033FB6100233B6223
:1014FC000123BB6202237B634FF48033BB634FF445
:10150C00E013FB6307F11803184601F0A5F8034636
:10151C00002B01D000F0A6F90F237B600223BB60E7
:10152C000023FB604FF480633B6100237B613B1D18
:10153C000221184601F012FB0346002B01D000F0EB
:10154C0091F900BF4037BD4680BD000080B592B018
:10155C0000AF07F1400300221A605A6007F1240320
:10156C0000221A605A609A60DA601A615A619A61B4
:10157C003B1D20220021184602F07EFF324B334ADD
:10158C001A60314B00225A602F4B00229A602E4B6E
:10159C005922DA602C4B00221A612B4B00225A6123
:1015AC00294B00229A61284801F066FC0346002B67
:1015BC0001D000F057F900233B6400237B6407F152
:1015CC0040031946204801F05FFF0346002B01D071
:1015DC0000F048F960237B620023BB620023FB62AE
:1015EC0000233B6300237B630023BB630023FB636B
:1015FC0007F1240300221946134801F08DFC034621
:10160C00002B01D000F02EF900237B600023BB607F
:10161C000023FB6000233B6100237B614FF40053EC
:10162C00BB6100233B623B1D1946074801F08AFF52
:10163C000346002B01D000F015F9034800F0AAF97D
:10164C0000BF4837BD4680BDA4020020002C0140DD
:10165C0080B58AB000AF07F1200300221A605A60EF
:10166C003B1D00221A605A609A60DA601A615A6156
:10167C009A61204B204A1A601E4B00225A601D4B67
:10168C0000229A601B4B4FF6FF72DA60194B002256
:10169C001A61184B00229A61164801F0EDFB0346C3
:1016AC00002B01D000F0DEF800233B6200237B62AC
:1016BC0007F1200319460F4801F0E6FE0346002B04
:1016CC0001D000F0CFF860237B600023BB600023C7
:1016DC00FB6000237B613B1D08221946054801F085
:1016EC001BFC0346002B01D000F0BCF800BF2837D0
:1016FC00BD4680BDEC0200200004004080B500AF68
:10170C00114B124A1A60104B4FF4E1325A600E4BD7
:10171C0000229A600C4B0022DA600B4B00221A61FB
:10172C00094B0C225A61084B00229A61064B00228D
:10173C00DA61054801F057FF0346002B01D000F099
:10174C0091F800BF80BD00BF780300200038014035
:10175C0080B582B000AF0C4B5B690B4A43F00103C0
:10176C005361094B5B6903F001037B607B680022CA
:10177C0000210C2000F059FB0C2000F072FB00BF84
:10178C000837BD4680BD00BF0010024080B588B050
:10179C0000AF07F1100300221A605A609A60DA60F9
:1017AC002C4B9B692B4A43F010039361294B9B698B
:1017BC0003F01003FB60FB68264B9B69254A43F042
:1017CC0020039361234B9B6903F02003BB60BB6830
:1017DC00204B9B691F4A43F0040393611D4B9B698B
:1017EC0003F004037B607B681A4B9B69194A43F036
:1017FC0008039361174B9B6903F008033B603B683C
:10180C004FF480433B6100237B610123BB6107F1F3
:10181C0010031946104800F053FDFF233B610023D1
:10182C007B610123BB6107F1100319460B4800F0E3
:10183C0047FD4FF6FB733B6100237B610123BB61CA
:10184C0007F110031946064800F03AFD00BF203797
:10185C00BD4680BD00100240001001400008014050
:10186C00000C014080B582B000AF72B600BF4FF4DF
:10187C000051074800F0D7FE00237B6002E07B6834
:10188C0001337B607B68034A9342F8DDEFE700BFCE
:10189C00001001409F86010080B483B000AF0E4B56
:1018AC009B690D4A43F0010393610B4B9B6903F059
:1018BC0001037B607B68084BDB69074A43F080536C
:1018CC00D361054BDB6903F080533B603B6800BF81
:1018DC000C37BD4680BC70470010024080B584B008
:1018EC0000AF78607B681B68254A934232D1254B48
:1018FC009B69244A43F400639361224B9B6903F474
:10190C000063FB60FB68204B204A1A601E4B1022C0
:10191C005A601D4B40229A601B4B8022DA601A4B96
:10192C0000221A61184B00225A61174B00229A614F
:10193C00154B0022DA61144800F0AEFA0346002B76
:10194C0001D0FFF78FFF7B680F4A5A620E4A7B6803
:10195C00536210E07B681B680D4A93420BD1094B14
:10196C00DB69084A43F00203D361064BDB6903F0E1
:10197C000203BB60BB6800BF1037BD4680BD00BF13
:10198C00002C014000100240340300201C000240D7
:10199C000004004080B588B000AF786007F11003F8
:1019AC0000221A605A609A60DA607B681B68104AE1
:1019BC00934218D10F4B9B690E4A43F00403936179
:1019CC000C4B9B6903F00403FB60FB684FF48073C2
:1019DC003B6102237B610223FB6107F11003194673
:1019EC00054800F06DFC00BF2037BD4680BD00BF30
:1019FC00002C0140001002400008014080B588B066
:101A0C0000AF786007F1100300221A605A609A60E8
:101A1C00DA607B681B68204A934239D11F4B9B6963
:101A2C001E4A43F4804393611C4B9B6903F480432F
:101A3C00FB60FB68194B9B69184A43F004039361E4
:101A4C00164B9B6903F00403BB60BB684FF4007337
:101A5C003B6102237B610323FB6107F110031946F1
:101A6C000F4800F02DFC4FF480633B6100237B6139
:101A7C000023BB6107F110031946094800F020FC54
:101A8C0000220121252000F0D0F9252000F0E9F9F1
:101A9C0000BF2037BD4680BD003801400010024019
:101AAC000008014080B400AF00BFBD4680BC704749
:101ABC0080B400AFFEE780B400AFFEE780B400AFA7
:101ACC00FEE780B400AFFEE780B400AF00BFBD46B8
:101ADC0080BC704780B400AF00BFBD4680BC70476F
:101AEC0080B400AF00BFBD4680BC704780B500AF6E
:101AFC0000F084F800BF80BD80B500AF024800F054
:101B0C00D9FA00BF80BD00BF3403002080B500AF00
:101B1C00024801F069FE00BF80BD00BF78030020C1
:101B2C000C4885460C480D490D4A002302E0D45858
:101B3C00C4500433C4188C42F9D30A4A0A4C00230B
:101B4C0001E013600432A242FBD302F09DFCFFF7CC
:101B5C0063FC704700500020000000200C000020A7
:101B6C002C4600080C000020CC040020FEE70000EE
:101B7C0080B500AF084B1B68074A43F01003136095
:101B8C00032000F047F90F2000F008F8FFF784FE5F
:101B9C000023184680BD00BF0020024080B582B0F3
:101BAC0000AF7860124B1A68124B1B7819464FF431
:101BBC007A73B3FBF1F3B2FBF3F3184600F05FF961
:101BCC000346002B01D001230EE07B680F2B0AD8B3
:101BDC00002279684FF0FF3000F027F9064A7B6845
:101BEC001360002300E0012318460837BD4680BD72
:101BFC0000000020080000200400002080B400AF8A
:101C0C00054B1B781A46054B1B681344034A13609B
:101C1C0000BFBD4680BC704708000020C0030020F8
:101C2C0080B400AF024B1B681846BD4680BC7047A1
:101C3C00C003002080B584B000AF7860FFF7F0FFE0
:101C4C00B8607B68FB60FB68B3F1FF3F05D00A4BC3
:101C5C001B781A46FB681344FB6000BFFFF7E0FFDC
:101C6C000246BB68D31AFA689A42F7D800BF00BF85
:101C7C001037BD4680BD00BF0800002080B485B081
:101C8C0000AF78607B6803F00703FB600C4BDB68EC
:101C9C00BB60BA684FF6FF031340BB60FB681A02C7
:101CAC00BB68134343F0BF6343F40033BB60044A87
:101CBC00BB68D36000BF1437BD4680BC704700BF03
:101CCC0000ED00E080B400AF044BDB681B0A03F0AE
:101CDC0007031846BD4680BC704700BF00ED00E00E
:101CEC0080B483B000AF0346FB7197F90730002B2B
:101CFC000BDBFB7903F01F02064997F907305B09F0
:101D0C00012000FA02F241F8232000BF0C37BD4637
:101D1C0080BC704700E100E080B483B000AF0346A4
:101D2C003960FB7197F90730002B0ADB3B68DAB29C
:101D3C000C4997F907301201D2B20B4483F80023F7
:101D4C000AE03B68DAB20849FB7903F00F03043B65
:101D5C001201D2B20B441A7600BF0C37BD4680BCC0
:101D6C00704700BF00E100E000ED00E080B489B0F6
:101D7C0000AFF860B9607A60FB6803F00703FB61A1
:101D8C00FB69C3F10703042B28BF0423BB61FB6968
:101D9C000433062B02D9FB69033B00E000237B6173
:101DAC004FF0FF32BB6902FA03F3DA43BB681A4007
:101DBC007B699A404FF0FF317B6901FA03F3D943F9
:101DCC007B680B40134318462437BD4680BC7047D4
:101DDC0080B582B000AF78607B68013BB3F1807F47
:101DEC0001D301230FE00A4A7B68013B53600F21AA
:101DFC004FF0FF30FFF790FF054B00229A60044B29
:101E0C0007221A60002318460837BD4680BD00BF64
:101E1C0010E000E080B582B000AF78607868FFF722
:101E2C002DFF00BF0837BD4680BD80B586B000AF22
:101E3C000346B9607A60FB7300237B61FFF742FFB6
:101E4C0078617A68B9687869FFF790FF024697F96C
:101E5C000F3011461846FFF75FFF00BF1837BD461D
:101E6C0080BD80B582B000AF0346FB7197F9073097
:101E7C001846FFF735FF00BF0837BD4680BD80B55B
:101E8C0082B000AF78607868FFF7A2FF034618466F
:101E9C000837BD4680BD000080B485B000AF7860C7
:101EAC000023FB607B68002B01D1012343E07B689E
:101EBC001B681A46224B1344224AA2FB03231B091C
:101ECC009A007B681A647B681F4ADA637B6802227B
:101EDC0083F821207B681B681B68FB60FB6823F47C
:101EEC007F5323F03003FB607B685A687B689B68E8
:101EFC001A437B68DB681A437B681B691A437B684F
:101F0C005B691A437B689B691A437B68DB691343E3
:101F1C00FA681343FB607B681B68FA681A607B687D
:101F2C0000229A637B68012283F821207B680022BF
:101F3C0083F82020002318461437BD4680BC704718
:101F4C00F8FFFDBFCDCCCCCC0000024080B485B0F6
:101F5C0000AF78600023FB737B6893F82130DBB211
:101F6C00022B08D07B6804229A637B68002283F8DA
:101F7C002020012320E07B681B681A687B681B68A3
:101F8C0022F00E021A607B681B681A687B681B685B
:101F9C0022F001021A607B681A6C7B68DB6B0121F2
:101FAC0001FA02F25A607B68012283F821207B68D7
:101FBC00002283F82020FB7B18461437BD4680BCDA
:101FCC007047000080B584B000AF78600023FB73CD
:101FDC007B6893F82130DBB2022B05D07B6804229E
:101FEC009A630123FB7351E07B681B681A687B685A
:101FFC001B6822F00E021A607B681B681A687B68EB
:10200C001B6822F001021A607B681B68224A93420B
:10201C0029D07B681B68214A934222D07B681B68BD
:10202C001F4A93421AD07B681B681E4A934212D0F7
:10203C007B681B681C4A93420AD07B681B681B4A4E
:10204C00934202D14FF480130EE04FF080730BE0FB
:10205C004FF4803308E04FF4805305E04FF4807365
:10206C0002E0102300E00123114A53607B68012237
:10207C0083F821207B68002283F820207B685B6B2F
:10208C00002B03D07B685B6B78689847FB7B18460A
:10209C001037BD4680BD00BF080002401C00024046
:1020AC003000024044000240580002406C000240E4
:1020BC000000024080B584B000AF78607B68DB6BB9
:1020CC001B68FB607B681B681B68BB607B681B6CB8
:1020DC0004229A40FB681340002B4FD0BB6803F0DE
:1020EC000403002B4AD07B681B681B6803F0200399
:1020FC00002B07D17B681B681A687B681B6822F071
:10210C0004021A607B681B68664A934229D07B687C
:10211C001B68654A934222D07B681B68634A9342D2
:10212C001AD07B681B68624A934212D07B681B688A
:10213C00604A93420AD07B681B685F4A934202D183
:10214C004FF480030EE04FF080630BE04FF48023DC
:10215C0008E04FF4804305E04FF4806302E0402335
:10216C0000E00423554A53607B68DB6A002B00F0C7
:10217C0094807B68DB6A786898478EE07B681B6C80
:10218C0002229A40FB681340002B56D0BB6803F028
:10219C000203002B51D07B681B681B6803F02003E3
:1021AC00002B0BD17B681B681A687B681B6822F0BC
:1021BC000A021A607B68012283F821207B681B6865
:1021CC00384A934229D07B681B68374A934222D005
:1021DC007B681B68354A93421AD07B681B68344A6B
:1021EC00934212D07B681B68324A93420AD07B68B8
:1021FC001B68314A934202D14FF400130EE04FF0AA
:10220C0000730BE04FF4003308E04FF4005305E08B
:10221C004FF4007302E0202300E00223274A5360AE
:10222C007B68002283F820207B689B6A002B34D0CB
:10223C007B689B6A786898472FE07B681B6C082248
:10224C009A40FB681340002B28D0BB6803F00803AE
:10225C00002B23D07B681B681A687B681B6822F0F4
:10226C000E021A607B681A6C7B68DB6B012101FA29
:10227C0002F25A607B6801229A637B68012283F820
:10228C0021207B68002283F820207B681B6B002BAD
:10229C0004D07B681B6B7868984700BF00BF103771
:1022AC00BD4680BD080002401C00024030000240C8
:1022BC0044000240580002406C0002400000024002
:1022CC0080B48BB000AF7860396000237B62002350
:1022DC003B6269E101227B6A02FA03F3FB613B6812
:1022EC001B68FA691340BB61BA69FB699A4240F0FA
:1022FC0058813B685B689A4A93425ED0984A9342F5
:10230C0075D8984A934258D0964A93426FD8964AB9
:10231C00934252D0944A934269D8944A93424CD0F7
:10232C00924A934263D8924A934246D0904A93423F
:10233C005DD8122B2AD8122B59D801A252F823F0AF
:10234C00C7230008A1230008B3230008F5230008C5
:10235C00FB230008FB230008FB230008FB230008D9
:10236C00FB230008FB230008FB230008FB230008C9
:10237C00FB230008FB230008FB230008FB230008B9
:10238C00FB230008A9230008BD230008794A9342C7
:10239C0013D02CE03B68DB683B6229E03B68DB68D0
:1023AC0004333B6224E03B68DB6808333B621FE08C
:1023BC003B68DB680C333B621AE03B689B68002B84
:1023CC0002D104233B6213E03B689B68012B05D1CF
:1023DC0008233B627B68FA691A6109E008233B62B7
:1023EC007B68FA695A6103E000233B6200E000BF9E
:1023FC00BB69FF2B01D87B6801E07B6804337B61F0
:10240C00BB69FF2B02D87B6A9B0002E07B6A083B0E
:10241C009B003B617B691A680F213B6901FA03F34E
:10242C00DB431A40396A3B6901FA03F31A437B69AF
:10243C001A603B685B6803F08053002B00F0B1809E
:10244C004D4B9B694C4A43F0010393614A4B9B698A
:10245C0003F00103BB60BB68484A7B6A9B080233EC
:10246C0052F82330FB607B6A03F003039B000F22BE
:10247C0002FA03F3DB43FA681340FB607B68404AC3
:10248C00934213D07B683F4A93420DD07B683E4AFF
:10249C00934207D07B683D4A934201D1032306E067
:1024AC00042304E0022302E0012300E000237A6A03
:1024BC0002F0030292009340FA681343FB602F4929
:1024CC007B6A9B080233FA6841F823203B685B68FF
:1024DC0003F48013002B06D02D4B9A682C49BB6952
:1024EC0013438B6006E02A4B9A68BB69DB4328498F
:1024FC0013408B603B685B6803F40013002B06D021
:10250C00234BDA682249BB691343CB6006E0204BAE
:10251C00DA68BB69DB431E491340CB603B685B68E0
:10252C0003F40033002B06D0194B5A681849BB69C9
:10253C0013434B6006E0164B5A68BB69DB431449E6
:10254C0013404B603B685B6803F48033002B21D055
:10255C000F4B1A680E49BB6913430B6021E000BF97
:10256C000000321000003110000022100000211079
:10257C000000121000001110001002400000014079
:10258C0000080140000C0140001001400014014003
:10259C00000401400B4B1A68BB69DB43094913402B
:1025AC000B607B6A01337B623B681A687B6A22FA98
:1025BC0003F3002B7FF48EAE00BF00BF2C37BD465B
:1025CC0080BC70470004014080B485B000AF7860D7
:1025DC000B467B807B689A687B881340002B02D06B
:1025EC000123FB7301E00023FB73FB7B18461437BC
:1025FC00BD4680BC704780B483B000AF78600B469A
:10260C007B8013467B707B78002B03D07A887B68A9
:10261C001A6103E07B881A047B681A6100BF0C37CF
:10262C00BD4680BC704780B485B000AF78600B4667
:10263C007B807B68DB68FB607A88FB6813401A043C
:10264C00FB68D9437B880B401A437B681A6100BF37
:10265C001437BD4680BC704780B586B000AF78603B
:10266C007B68002B01D1012372E27B681B6803F0AD
:10267C000103002B00F08780924B5B6803F00C0386
:10268C00042B0CD08F4B5B6803F00C03082B12D17E
:10269C008C4B5B6803F48033B3F5803F0BD1894BD3
:1026AC001B6803F40033002B6CD07B685B68002B39
:1026BC0068D101234CE27B685B68B3F5803F06D19F
:1026CC00804B1B687F4A43F4803313602EE07B6899
:1026DC005B68002B0CD17B4B1B687A4A23F480334C
:1026EC001360784B1B68774A23F4802313601DE03A
:1026FC007B685B68B3F5A02F0CD1724B1B68714AD9
:10270C0043F4802313606F4B1B686E4A43F4803391
:10271C0013600BE06B4B1B686A4A23F48033136025
:10272C00684B1B68674A23F4802313607B685B68E3
:10273C00002B13D0FFF774FA386108E0FFF770FA3A
:10274C0002463B69D31A642B01D9032300E25D4B8B
:10275C001B6803F40033002BF0D014E0FFF760FA91
:10276C00386108E0FFF75CFA02463B69D31A642B28
:10277C0001D90323ECE1534B1B6803F40033002B0A
:10278C00F0D100E000BF7B681B6803F00203002B54
:10279C0063D04C4B5B6803F00C03002B0BD0494B04
:1027AC005B6803F00C03082B1CD1464B5B6803F4ED
:1027BC008033002B16D1434B1B6803F00203002B14
:1027CC0005D07B681B69012B01D00123C0E13D4B77
:1027DC001B6823F0F8027B685B69DB003949134303
:1027EC000B603AE07B681B69002B20D0364B012232
:1027FC001A60FFF715FA386108E0FFF711FA024684
:10280C003B69D31A022B01D90323A1E12D4B1B6881
:10281C0003F00203002BF0D02A4B1B6823F0F802C4
:10282C007B685B69DB00274913430B6015E0264B83
:10283C0000221A60FFF7F4F9386108E0FFF7F0F9AD
:10284C0002463B69D31A022B01D9032380E11D4BAD
:10285C001B6803F00203002BF0D17B681B6803F0AC
:10286C000803002B3AD07B689B69002B19D0174BBF
:10287C0001221A60FFF7D4F9386108E0FFF7D0F9AC
:10288C0002463B69D31A022B01D9032360E10D4B9D
:10289C005B6A03F00203002BF0D0012000F0CEFAAB
:1028AC001CE00A4B00221A60FFF7BAF938610FE0FE
:1028BC00FFF7B6F902463B69D31A022B08D903235A
:1028CC0046E100BF00100240000042428004424238
:1028DC00924B5B6A03F00203002BE9D17B681B6807
:1028EC0003F00403002B00F0A6800023FB758B4B38
:1028FC00DB6903F08053002B0DD1884BDB69874AD1
:10290C0043F08053D361854BDB6903F08053BB608C
:10291C00BB680123FB75824B1B6803F48073002B8F
:10292C0018D17F4B1B687E4A43F480731360FFF70A
:10293C0077F9386108E0FFF773F902463B69D31A5F
:10294C00642B01D9032303E1754B1B6803F48073DB
:10295C00002BF0D07B68DB68012B06D16F4B1B6A18
:10296C006E4A43F0010313622DE07B68DB68002B99
:10297C000CD16A4B1B6A694A23F001031362674B43
:10298C001B6A664A23F0040313621CE07B68DB6855
:10299C00052B0CD1614B1B6A604A43F00403136294
:1029AC005E4B1B6A5D4A43F0010313620BE05B4B09
:1029BC001B6A5A4A23F001031362584B1B6A574A8D
:1029CC0023F0040313627B68DB68002B15D0FFF740
:1029DC0027F938610AE0FFF723F902463B69D31A5D
:1029EC0041F28832934201D90323B1E04B4B1B6A6D
:1029FC0003F00203002BEED014E0FFF711F938615D
:102A0C000AE0FFF70DF902463B69D31A41F288320E
:102A1C00934201D903239BE0404B1B6A03F0020352
:102A2C00002BEED1FB7D012B05D13C4BDB693B4AE6
:102A3C0023F08053D3617B68DB69002B00F0878027
:102A4C00364B5B6803F00C03082B61D07B68DB69A9
:102A5C00022B46D1334B00221A60FFF7E1F83861A4
:102A6C0008E0FFF7DDF802463B69D31A022B01D9C7
:102A7C0003236DE0294B1B6803F00073002BF0D18E
:102A8C007B681B6AB3F5803F08D1244B5B6823F449
:102A9C0000327B689B68214913434B601F4B5B687A
:102AAC0023F474127B68196A7B685B6A0B431B49BD
:102ABC0013434B601B4B01221A60FFF7B1F83861CE
:102ACC0008E0FFF7ADF802463B69D31A022B01D997
:102ADC0003233DE0114B1B6803F00073002BF0D077
:102AEC0035E0104B00221A60FFF79AF8386108E0C5
:102AFC00FFF796F802463B69D31A022B01D9032340
:102B0C0026E0064B1B6803F00073002BF0D11EE08F
:102B1C007B68DB69012B07D1012319E0001002400F
:102B2C0000700040600042420B4B5B68FB60FB682E
:102B3C0003F480327B681B6A9A4206D1FB6803F46B
:102B4C0070127B685B6A9A4201D0012300E000237B
:102B5C0018461837BD4680BD0010024080B584B0C1
:102B6C0000AF786039607B68002B01D10123D0E085
:102B7C006A4B1B6803F007033A689A4210D9674BFB
:102B8C001B6823F0070265493B6813430B60634BDA
:102B9C001B6803F007033A689A4201D00123B8E09E
:102BAC007B681B6803F00203002B20D07B681B683A
:102BBC0003F00403002B05D0594B5B68584A43F4CF
:102BCC00E06353607B681B6803F00803002B05D09F
:102BDC00534B5B68524A43F460535360504B5B68F1
:102BEC0023F0F0027B689B684D4913434B607B6874
:102BFC001B6803F00103002B40D07B685B68012B42
:102C0C0007D1474B1B6803F40033002B15D101236C
:102C1C007FE07B685B68022B07D1414B1B6803F09C
:102C2C000073002B09D1012373E03D4B1B6803F0AB
:102C3C000203002B01D101236BE0394B5B6823F0BD
:102C4C0003027B685B68364913434B60FEF7E8FF71
:102C5C00F8600AE0FEF7E4FF0246FB68D31A41F283
:102C6C008832934201D9032353E02D4B5B6803F068
:102C7C000C027B685B689B009A42EBD1274B1B686C
:102C8C0003F007033A689A4210D2244B1B6823F0D6
:102C9C00070222493B6813430B60204B1B6803F06F
:102CAC0007033A689A4201D0012332E07B681B6823
:102CBC0003F00403002B08D0194B5B6823F4E0628B
:102CCC007B68DB68164913434B607B681B6803F019
:102CDC000803002B09D0124B5B6823F460527B680D
:102CEC001B69DB000E4913434B6000F021F80246D0
:102CFC000B4B5B681B0903F00F030A49CB5C22FAF0
:102D0C0003F3094A1360094B1B681846FEF746FF8C
:102D1C00002318461037BD4680BD00BF002002407E
:102D2C00001002403845000800000020040000207C
:102D3C0080B487B000AF0023FB600023BB6000238E
:102D4C007B6100237B6000233B611E4B5B68FB6057
:102D5C00FB6803F00C03042B02D0082B03D027E0F4
:102D6C00194B3B6127E0FB689B0C03F00F03174AE0
:102D7C00D35C7B60FB6803F48033002B10D0114BC9
:102D8C005B685B0C03F00103114AD35CBB607B688E
:102D9C000D4A03FB02F2BB68B2FBF3F37B6104E068
:102DAC007B680C4A02FB03F37B617B693B6102E0AD
:102DBC00054B3B6100BF3B6918461C37BD4680BCC8
:102DCC00704700BF0010024000127A005045000806
:102DDC006045000800093D0080B400AF024B1B6841
:102DEC001846BD4680BC70470000002080B500AF7F
:102DFC00FFF7F2FF0246054B5B681B0A03F0070363
:102E0C000349CB5C22FA03F3184680BD0010024044
:102E1C004845000880B500AFFFF7DEFF0246054BC2
:102E2C005B68DB0A03F007030349CB5C22FA03F36C
:102E3C00184680BD001002404845000880B485B09B
:102E4C0000AF78600A4B1B680A4AA2FB03235B0A9B
:102E5C007A6802FB03F3FB6000BFFB685A1EFA6042
:102E6C00002BF9D100BF00BF1437BD4680BC7047A2
:102E7C0000000020D34D621080B582B000AF7860A6
:102E8C007B68002B01D1012341E07B6893F83D3036
:102E9C00DBB2002B06D17B68002283F83C207868DB
:102EAC00FEF71CFD7B68022283F83D207B681A68C4
:102EBC007B6804331946104600F0F0F87B68012259
:102ECC0083F846207B68012283F83E207B68012230
:102EDC0083F83F207B68012283F840207B68012225
:102EEC0083F841207B68012283F842207B68012211
:102EFC0083F843207B68012283F844207B680122FD
:102F0C0083F845207B68012283F83D200023184676
:102F1C000837BD4680BD000080B586B000AFF860B4
:102F2C00B9607A600023FB75FB6893F83C30012B89
:102F3C0001D10223AEE0FB68012283F83C207B68C0
:102F4C000C2B00F29F8001A252F823F08D2F000869
:102F5C00913000089130000891300008CD2F000806
:102F6C009130000891300008913000080F300008B3
:102F7C009130000891300008913000084F30000863
:102F8C00FB681B68B968184600F0F6F8FB681B680C
:102F9C009A69FB681B6842F008029A61FB681B681F
:102FAC009A69FB681B6822F004029A61FB681B6833
:102FBC009969BB681A69FB681B680A439A6164E0EB
:102FCC00FB681B68B968184600F03CF9FB681B6885
:102FDC009A69FB681B6842F400629A61FB681B6883
:102FEC009A69FB681B6822F480629A61FB681B6813
:102FFC009969BB681B691A02FB681B680A439A61D2
:10300C0043E0FB681B68B968184600F085F9FB685B
:10301C001B68DA69FB681B6842F00802DA61FB681E
:10302C001B68DA69FB681B6822F00402DA61FB6832
:10303C001B68D969BB681A69FB681B680A43DA61AB
:10304C0023E0FB681B68B968184600F0CFF9FB68F1
:10305C001B68DA69FB681B6842F40062DA61FB6882
:10306C001B68DA69FB681B6822F48062DA61FB6812
:10307C001B68D969BB681B691A02FB681B680A4389
:10308C00DA6102E00123FB7500BFFB68002283F8C4
:10309C003C20FB7D18461837BD4680BD80B485B0FA
:1030AC0000AF786039607B681B68FB607B682F4AD7
:1030BC0093420BD07B68B3F1804F07D07B682C4ACE
:1030CC00934203D07B682B4A934208D1FB6823F0D0
:1030DC007003FB603B685B68FA681343FB607B68BA
:1030EC00224A93420BD07B68B3F1804F07D07B68A8
:1030FC001F4A934203D07B681E4A934208D1FB6857
:10310C0023F44073FB603B68DB68FA681343FB6095
:10311C00FB6823F080023B685B691343FB607B68B0
:10312C00FA681A603B689A687B68DA623B681A68CE
:10313C007B689A627B680D4A934203D13B681A699B
:10314C007B681A637B6801225A617B681B6903F0F8
:10315C000103002B05D07B681B6923F001027B68FF
:10316C001A6100BF1437BD4680BC7047002C01406B
:10317C00000400400008004080B487B000AF7860C5
:10318C0039607B681B6A7B617B681B6A23F00102D8
:10319C007B681A627B685B683B617B689B69FB6040
:1031AC00FB6823F07003FB60FB6823F00303FB60F8
:1031BC003B681B68FA681343FB607B6923F00203CE
:1031CC007B613B689B687A6913437B617B681C4A13
:1031DC0093420CD17B6923F008037B613B68DB686D
:1031EC007A6913437B617B6923F004037B617B6801
:1031FC00134A934211D13B6923F480733B613B69C1
:10320C0023F400733B613B685B693A6913433B6190
:10321C003B689B693A6913433B617B683A695A6026
:10322C007B68FA689A613B685A687B685A637B686A
:10323C007A691A6200BF1C37BD4680BC704700BF5C
:10324C00002C014080B487B000AF786039607B6897
:10325C001B6A7B617B681B6A23F010027B681A6215
:10326C007B685B683B617B689B69FB60FB6823F454
:10327C00E043FB60FB6823F44073FB603B681B6816
:10328C001B02FA681343FB607B6923F020037B610C
:10329C003B689B681B017A6913437B617B681D4A01
:1032AC0093420DD17B6923F080037B613B68DB6823
:1032BC001B017A6913437B617B6923F040037B61BB
:1032CC007B68144A934213D13B6923F480633B61BE
:1032DC003B6923F400633B613B685B699B003A6983
:1032EC0013433B613B689B699B003A6913433B6109
:1032FC007B683A695A607B68FA689A613B685A68DD
:10330C007B689A637B687A691A6200BF1C37BD467A
:10331C0080BC7047002C014080B487B000AF78604F
:10332C0039607B681B6A7B617B681B6A23F4807243
:10333C007B681A627B685B683B617B68DB69FB605E
:10334C00FB6823F07003FB60FB6823F00303FB6056
:10335C003B681B68FA681343FB607B6923F40073BA
:10336C007B613B689B681B027A6913437B617B68BA
:10337C001D4A93420DD17B6923F400637B613B684A
:10338C00DB681B027A6913437B617B6923F48063DE
:10339C007B617B68144A934213D13B6923F48053BD
:1033AC003B613B6923F400533B613B685B691B0148
:1033BC003A6913433B613B689B691B013A691343B0
:1033CC003B617B683A695A607B68FA68DA613B68F2
:1033DC005A687B68DA637B687A691A6200BF1C37AB
:1033EC00BD4680BC704700BF002C014080B487B044
:1033FC0000AF786039607B681B6A3B617B681B6A35
:10340C0023F480527B681A627B685B687B617B6803
:10341C00DB69FB60FB6823F4E043FB60FB6823F48F
:10342C004073FB603B681B681B02FA681343FB602C
:10343C003B6923F400533B613B689B681B033A696F
:10344C0013433B617B680F4A934209D17B6923F498
:10345C0080437B613B685B699B017A6913437B61A9
:10346C007B687A695A607B68FA68DA613B685A68EB
:10347C007B681A647B683A691A6200BF1C37BD46C8
:10348C0080BC7047002C014080B485B000AF7860E0
:10349C0039607B6893F83C30012B01D1022346E064
:1034AC007B68012283F83C207B68022283F83D2054
:1034BC007B681B685B68FB607B681B689B68BB60F8
:1034CC00FB6823F07003FB603B681B68FA681343CE
:1034DC00FB607B681B68FA685A607B681B68164A3D
:1034EC0093420ED07B681B68B3F1804F09D07B6888
:1034FC001B68124A934204D07B681B68104A9342A3
:10350C000CD1BB6823F08003BB603B685B68BA6876
:10351C001343BB607B681B68BA689A607B680122A6
:10352C0083F83D207B68002283F83C20002318465A
:10353C001437BD4680BC7047002C0140000400408D
:10354C000008004080B485B000AF7860396000237B
:10355C00FB607B6893F83C30012B01D102233DE0EA
:10356C007B68012283F83C20FB6823F0FF023B6858
:10357C00DB681343FB60FB6823F440723B689B6879
:10358C001343FB60FB6823F480623B685B68134366
:10359C00FB60FB6823F400623B681B681343FB6011
:1035AC00FB6823F480523B681B691343FB60FB6888
:1035BC0023F400523B685B691343FB60FB6823F404
:1035CC0080423B68DB691343FB607B681B68FA68CD
:1035DC005A647B68002283F83C2000231846143779
:1035EC00BD4680BC704780B582B000AF78607B6808
:1035FC00002B01D1012342E07B6893F84130DBB210
:10360C00002B06D17B68002283F840207868FEF7F7
:10361C00F5F97B68242283F841207B681B68DA6803
:10362C007B681B6822F40052DA60786800F0B8FD01
:10363C007B681B681A697B681B6822F490421A61CC
:10364C007B681B685A697B681B6822F02A025A61E6
:10365C007B681B68DA687B681B6842F40052DA608E
:10366C007B6800225A647B68202283F841207B68A7
:10367C00202283F842207B6800225A6300231846DC
:10368C000837BD4680BD80B58AB002AFF860B9601E
:10369C003B601346FB8000237B61FB6893F8413051
:1036AC00DBB2202B75D1BB68002B02D0FB88002B22
:1036BC0001D101236EE0FB6800225A64FB682122D1
:1036CC0083F84120FEF7ACFA7861FB68FA889A849B
:1036DC00FB68FA88DA84FB689B68B3F5805F08D1D5
:1036EC00FB681B69002B04D10023FB61BB68BB6129
:1036FC0003E0BB68FB610023BB612EE03B680093D9
:10370C007B6900228021F86800F01DFB0346002B2A
:10371C0005D0FB68202283F8412003233AE0FB69A3
:10372C00002B0BD1BB691B881A46FB681B68C2F3C4
:10373C0008025A60BB690233BB6107E0FB691A7867
:10374C00FB681B685A60FB690133FB61FB68DB8C0F
:10375C009BB2013B9AB2FB68DA84FB68DB8C9BB2B0
:10376C00002BCBD13B6800937B6900224021F86889
:10377C0000F0E9FA0346002B05D0FB68202283F801
:10378C004120032306E0FB68202283F8412000231C
:10379C0000E0022318462037BD4680BD80B584B0BA
:1037AC0000AFF860B9601346FB80FB6893F84230B9
:1037BC00DBB2202B12D1BB68002B02D0FB88002B74
:1037CC0001D101230BE0FB6800221A63FB881A4627
:1037DC00B968F86800F010FB034600E002231846B5
:1037EC001037BD4680BD000080B5BAB000AF786020
:1037FC007B681B681B68C7F8E4307B681B68DB6858
:10380C00C7F8E0307B681B685B69C7F8DC300023C5
:10381C00C7F8D8300023C7F8D430D7F8E43003F019
:10382C000F03C7F8D830D7F8D830002B0FD1D7F802
:10383C00E43003F02003002B09D0D7F8E03003F07C
:10384C002003002B03D0786800F0ECFB5BE2D7F888
:10385C00D830002B00F0DE80D7F8DC3003F0010309
:10386C00002B06D1D7F8E03003F49073002B00F056
:10387C00D180D7F8E43003F00103002B0BD0D7F83C
:10388C00E03003F48073002B05D07B685B6C43F055
:10389C0001027B685A64D7F8E43003F00403002B70
:1038AC000BD0D7F8DC3003F00103002B05D07B687C
:1038BC005B6C43F002027B685A64D7F8E43003F087
:1038CC000203002B0BD0D7F8DC3003F00103002BE4
:1038DC0005D07B685B6C43F004027B685A64D7F8B4
:1038EC00E43003F00803002B11D0D7F8E03003F0DC
:1038FC002003002B05D1D7F8DC3003F00103002B9B
:10390C0005D07B685B6C43F008027B685A647B686B
:10391C005B6C002B00F0F281D7F8E43003F020034D
:10392C00002B08D0D7F8E03003F02003002B02D096
:10393C00786800F077FB7B681B685B6903F04003D9
:10394C00002B14BF01230023DBB2C7F8D4307B68F3
:10395C005B6C03F00803002B03D1D7F8D430002B99
:10396C004FD0786800F081FA7B681B685B6903F0C4
:10397C004003002B41D07B681B681433C7F89C3084
:10398C00D7F89C3053E8003FC7F89830D7F89830F8
:10399C0023F04003C7F8D0307B681B681433D7F88A
:1039AC00D020C7F8A820C7F8A430D7F8A410D7F8AF
:1039BC00A82041E80023C7F8A030D7F8A030002B8E
:1039CC00D9D17B68DB6B002B13D07B68DB6B7E4A19
:1039DC005A637B68DB6B1846FEF7F4FA0346002B40
:1039EC0016D07B68DB6B5B6B7A68D26B10469847A2
:1039FC000EE0786800F093F90AE0786800F08FF92F
:103A0C0006E0786800F08BF97B6800225A6475E157
:103A1C0000BF73E17B681B6B012B40F04F81D7F823
:103A2C00E43003F01003002B00F04881D7F8E030AD
:103A3C0003F01003002B00F041810023BB607B6876
:103A4C001B681B68BB607B681B685B68BB60BB68E2
:103A5C007B681B685B6903F04003002B00F0B680A9
:103A6C007B68DB6B1B685B68A7F8BE30B7F8BE30B1
:103A7C00002B00F045817B689B8DB7F8BE209A42E5
:103A8C0080F03E817B68B7F8BE20DA857B68DB6B03
:103A9C009B69202B00F088807B681B680C33C7F86F
:103AAC008830D7F8883053E8003FC7F88430D7F80F
:103ABC00843023F48073C7F8B8307B681B680C33F0
:103ACC00D7F8B820C7F89420C7F89030D7F89010E2
:103ADC00D7F8942041E80023C7F88C30D7F88C3005
:103AEC00002BD9D17B681B6814337B677B6F53E841
:103AFC00003F3B673B6F23F00103C7F8B4307B6892
:103B0C001B681433D7F8B420C7F88020FB67F96F13
:103B1C00D7F8802041E80023BB67BB6F002BE1D1B5
:103B2C007B681B6814333B663B6E53E8003FFB65B8
:103B3C00FB6D23F04003C7F8B0307B681B6814336F
:103B4C00D7F8B020FA66BB66B96EFA6E41E800236E
:103B5C007B667B6E002BE3D17B68202283F84220AE
:103B6C007B6800221A637B681B680C33FB64FB6C5C
:103B7C0053E8003FBB64BB6C23F01003C7F8AC30B8
:103B8C007B681B680C33D7F8AC20BA657B65796D04
:103B9C00BA6D41E800233B653B6D002BE3D17B689C
:103BAC00DB6B1846FEF7D2F97B6802225A637B68FE
:103BBC009A8D7B68DB8D9BB2D31A9BB219467868C1
:103BCC0000F0B6F89CE000BF3B3F00087B689A8D84
:103BDC007B68DB8D9BB2D31AA7F8CE307B68DB8D6C
:103BEC009BB2002B00F08E80B7F8CE30002B00F08B
:103BFC0089807B681B680C33BB63BB6B53E8003F4D
:103C0C007B637B6B23F49073C7F8C8307B681B68AD
:103C1C000C33D7F8C8207A643B64396C7A6C41E871
:103C2C000023FB63FB6B002BE3D17B681B68143315
:103C3C007B627B6A53E8003F3B623B6A23F00103E3
:103C4C00C7F8C4307B681B681433D7F8C4203A63B8
:103C5C00FB62F96A3A6B41E80023BB62BB6A002B3A
:103C6C00E3D17B68202283F842207B6800221A6310
:103C7C007B681B680C333B613B6953E8003FFB607E
:103C8C00FB6823F01003C7F8C0307B681B680C334B
:103C9C00D7F8C020FA61BB61B969FA6941E8002321
:103CAC007B617B69002BE3D17B6802225A63B7F8F6
:103CBC00CE301946786800F03BF823E0D7F8E430B2
:103CCC0003F08003002B09D0D7F8E03003F0800319
:103CDC00002B03D0786800F03EF914E0D7F8E430FC
:103CEC0003F04003002B0ED0D7F8E03003F0400374
:103CFC00002B08D0786800F07DF904E000BF02E0EA
:103D0C0000BF00E000BFE837BD4680BD80B483B083
:103D1C0000AF786000BF0C37BD4680BC704780B4E4
:103D2C0083B000AF786000BF0C37BD4680BC7047D5
:103D3C0080B483B000AF78600B467B8000BF0C373B
:103D4C00BD4680BC704780B586B000AFF860B960E6
:103D5C003B601346FB713BE03B6AB3F1FF3F37D04E
:103D6C00FDF75EFF02463B68D31A3A6A9A4202D3C9
:103D7C003B6A002B01D103233AE0FB681B68DB682C
:103D8C0003F00403002B23D0BB68802B20D0BB682E
:103D9C00402B1DD0FB681B681B6803F00803082B25
:103DAC0016D100237B61FB681B681B687B61FB6879
:103DBC001B685B687B617B69F86800F056F8FB68F0
:103DCC0008225A64FB68002283F8402001230FE08C
:103DDC00FB681B681A68BB681340BA689A420CBF30
:103DEC0001230023DBB21A46FB799A42B4D000239C
:103DFC0018461837BD4680BD80B485B000AFF8605A
:103E0C00B9601346FB80FB68BA689A62FB68FA8853
:103E1C009A85FB68FA88DA85FB6800225A64FB688D
:103E2C00222283F84220FB681B69002B07D0FB6819
:103E3C001B68DA68FB681B6842F48072DA60FB6806
:103E4C001B685A69FB681B6842F001025A61FB68E7
:103E5C001B68DA68FB681B6842F02002DA600023FA
:103E6C0018461437BD4680BC704780B495B000AF7F
:103E7C0078607B681B680C337B637B6B53E8003F7B
:103E8C003B633B6B23F49073FB647B681B680C33C4
:103E9C00FA6C3A64FB63F96B3A6C41E80023BB6340
:103EAC00BB6B002BE5D17B681B6814333B623B6A10
:103EBC0053E8003FFB61FB6923F00103BB647B68A3
:103ECC001B681433BA6CFA62BB62B96AFA6A41E8CD
:103EDC0000237B627B6A002BE5D17B681B6B012B7B
:103EEC0019D17B681B680C33FB60FB6853E8003FFF
:103EFC00BB60BB6823F010037B647B681B680C33CE
:103F0C007A6CBA617B617969BA6941E800233B61DB
:103F1C003B69002BE5D17B68202283F842207B682B
:103F2C0000221A6300BF5437BD4680BC704780B571
:103F3C0084B000AF78607B685B6AFB60FB68002232
:103F4C00DA85FB680022DA84F868FFF7E8FE00BF28
:103F5C001037BD4680BD80B485B000AF78607B68FB
:103F6C0093F84130DBB2212B3ED17B689B68B3F5D3
:103F7C00805F14D17B681B69002B10D17B681B6A96
:103F8C00FB60FB681B881A467B681B68C2F308023F
:103F9C005A607B681B6A9A1C7B681A6208E07B6813
:103FAC001B6A591C7A6811621A787B681B685A6004
:103FBC007B68DB8C9BB2013B9BB27A681946D1843F
:103FCC00002B0FD17B681B68DA687B681B6822F0BA
:103FDC008002DA607B681B68DA687B681B6842F0D9
:103FEC004002DA60002300E0022318461437BD4675
:103FFC0080BC704780B582B000AF78607B681B686E
:10400C00DA687B681B6822F04002DA607B68202249
:10401C0083F841207868FFF779FE002318460837AB
:10402C00BD4680BD80B58CB000AF78607B6893F8DE
:10403C004230DBB2222B40F0AE807B689B68B3F53C
:10404C00805F17D17B681B69002B13D10023FB62A7
:10405C007B689B6ABB627B681B685B689BB2C3F323
:10406C0008039AB2BB6A1A807B689B6A9A1C7B68AD
:10407C009A6226E07B689B6AFB620023BB627B68CA
:10408C009B68B3F5805F07D07B689B68002B0AD1D7
:10409C007B681B69002B06D17B681B685B68DAB2F6
:1040AC00FB6A1A7008E07B681B685B68DBB203F084
:1040BC007F03DAB2FB6A1A707B689B6A5A1C7B68B6
:1040CC009A627B68DB8D9BB2013B9BB27A68194686
:1040DC00D185002B5DD17B681B68DA687B681B6817
:1040EC0022F02002DA607B681B68DA687B681B6848
:1040FC0022F48072DA607B681B685A697B681B68E3
:10410C0022F001025A617B68202283F842207B68EE
:10411C0000225A637B681B6B012B35D17B68002214
:10412C001A637B681B680C337B617B6953E8003F27
:10413C003B613B6923F010037B627B681B680C338B
:10414C007A6A3A62FB61F9693A6A41E80023BB6119
:10415C00BB69002BE5D17B681B681B6803F010035F
:10416C00102B0AD10023FB607B681B681B68FB606B
:10417C007B681B685B68FB60FB687B689B8D1946E2
:10418C007868FFF7D5FD02E0786800F0DFF80023CF
:10419C0002E0002300E0022318463037BD4680BD04
:1041AC0080B584B000AF78607B681B681B6923F412
:1041BC0040517B68DA687B681B680A431A617B682C
:1041CC009A687B681B691A437B685B691343BB6005
:1041DC007B681B68DB6823F4B05323F00C037A680C
:1041EC001268B9680B43D3607B681B685B6923F466
:1041FC0040717B689A697B681B680A435A617B68CB
:10420C001B682C4A934203D1FEF704FEF86002E0CF
:10421C00FEF7ECFDF860FA6813469B0013449A0015
:10422C001A447B685B689B00B2FBF3F3224AA2FB47
:10423C0003235B091901FA6813469B0013449A0087
:10424C001A447B685B689B00B2FBF3F21A4BA3FB2E
:10425C0002035B09642000FB03F3D31A1B01323306
:10426C00154AA2FB03235B0903F0F0031944FA6817
:10427C0013469B0013449A001A447B685B689B00AE
:10428C00B2FBF3F20C4BA3FB02035B09642000FBB3
:10429C0003F3D31A1B013233074AA2FB03235B0936
:1042AC0003F00F027B681B680A449A6000BF10374A
:1042BC00BD4680BD003801401F85EB5180B582B0F2
:1042CC0000AF03463960FB71FB79172B02D83B68B2
:1042DC00002B01D1002315E0FB790C4A52F8332056
:1042EC00FB790A49DB000B449B8819461046FEF704
:1042FC006BF90346012B0CBF01230023DAB23B6898
:10430C001A70012318460837BD4680BD6445000865
:10431C0080B400AF00BFBD4680BC704780B500AF15
:10432C00064B00221A80064B00221A8001220549F6
:10433C000548FFF733FA00BF80BD00BFC40400205E
:10434C00C6040020C80400207803002080B584B087
:10435C0000AF78607B681B68114A93421CD1114BEB
:10436C001B889BB201339BB2DBB2FB810E4B1B88CB
:10437C009BB2FA899A420AD00A4B1B889BB21A4606
:10438C000A4B19780A4B9954064AFB89138001226F
:10439C0006490848FFF702FA00BF1037BD4680BD3A
:1043AC0000380140C4040020C6040020C8040020CA
:1043BC00C40300207803002080B400AF00BFBD46CA
:1043CC0080BC704780B400AF074B1B889AB2074B78
:1043DC001B889BB29A4214BF01230023DBB2184600
:1043EC00BD4680BC704700BFC4040020C60400203A
:1043FC0080B483B000AF0023FB710F4B1B889AB2C3
:10440C000E4B1B889BB29A420FD00C4B1B889BB255
:10441C001A460B4B9B5CFB71084B1B889BB2013300
:10442C009BB2DBB29AB2054B1A80FB7918460C375B
:10443C00BD4680BC704700BFC4040020C6040020E9
:10444C00C403002080B582B000AF78600B467B803F
:10445C007B68002B09D07B88002B06D07A886423DC
:10446C0079680448FFF70FF900E000BF0837BD4634
:10447C0080BD00BF7803002003460244934200D164
:10448C00704703F8011BF9E770B500260C4D0D4C75
:10449C00641BA410A64209D100F028F800260A4D8E
:1044AC000A4C641BA410A64205D170BD55F8043B00
:1044BC0098470136EEE755F8043B98470136F2E78A
:1044CC002446000824460008244600082846000814
:1044DC000A44914200F1FF3300D1704710B511F836
:1044EC00014B914203F8014FF9D110BDF8B500BF53
:1044FC00F8BC08BC9E467047F8B500BFF8BC08BCB9
:04450C009E46704710
:104510003D3D3D2053544D333220424F4F5445448E
:10452000204F4B203D3D3D0D0A000000E8030000F8
:104530000200000001000000000000000000000078
:104540000102030406070809000000000102030439
:1045500002030405060708090A0B0C0D0E0F1010C4
:1045600001020000000801400100000000080140B5
:10457000020000000010014000400000000801405F
:10458000040000000008014008000000000801408D
:104590001000000000080140200000000008014059
:1045A000400000000008014080000000000C0140B5
:1045B00001000000000C014002000000000C01405E
:1045C00008000000000C014010000000000C014039
:1045D00020000000000C014040000000000C0140E1
:1045E00080000000000C014000010000000C0140B0
:1045F00000020000000C014000040000000C01401B
:1046000000080000000C014000100000000C0140F8
:1046100000200000000C014000400000000C0140A0
:044620000080000016
:044624001101000878
:04462800ED00000899
:0C462C0000127A001000000001000000E5
:0400000508001B2DA7
:00000001FF
